{
  "_format": "hh-sol-artifact-1",
  "contractName": "FlipCoin",
  "sourceName": "contracts/FlipCoin.sol",
  "abi": [
    {
      "inputs": [
        {
          "internalType": "uint256",
          "name": "initialAmount",
          "type": "uint256"
        },
        {
          "internalType": "uint256",
          "name": "cap",
          "type": "uint256"
        }
      ],
      "stateMutability": "nonpayable",
      "type": "constructor"
    },
    {
      "anonymous": false,
      "inputs": [
        {
          "indexed": true,
          "internalType": "address",
          "name": "owner",
          "type": "address"
        },
        {
          "indexed": true,
          "internalType": "address",
          "name": "spender",
          "type": "address"
        },
        {
          "indexed": false,
          "internalType": "uint256",
          "name": "value",
          "type": "uint256"
        }
      ],
      "name": "Approval",
      "type": "event"
    },
    {
      "anonymous": false,
      "inputs": [
        {
          "indexed": true,
          "internalType": "address",
          "name": "from",
          "type": "address"
        },
        {
          "indexed": true,
          "internalType": "address",
          "name": "to",
          "type": "address"
        },
        {
          "indexed": false,
          "internalType": "uint256",
          "name": "value",
          "type": "uint256"
        }
      ],
      "name": "Transfer",
      "type": "event"
    },
    {
      "inputs": [],
      "name": "DECAY_PERCENTAGE",
      "outputs": [
        {
          "internalType": "uint256",
          "name": "",
          "type": "uint256"
        }
      ],
      "stateMutability": "view",
      "type": "function"
    },
    {
      "inputs": [],
      "name": "EXPIRY_DURATION",
      "outputs": [
        {
          "internalType": "uint256",
          "name": "",
          "type": "uint256"
        }
      ],
      "stateMutability": "view",
      "type": "function"
    },
    {
      "inputs": [
        {
          "internalType": "address",
          "name": "_address",
          "type": "address"
        },
        {
          "internalType": "uint256",
          "name": "amount",
          "type": "uint256"
        }
      ],
      "name": "_burnToken",
      "outputs": [],
      "stateMutability": "nonpayable",
      "type": "function"
    },
    {
      "inputs": [
        {
          "internalType": "uint256",
          "name": "_amount",
          "type": "uint256"
        },
        {
          "internalType": "address",
          "name": "_customerAddress",
          "type": "address"
        }
      ],
      "name": "_customerReward",
      "outputs": [],
      "stateMutability": "nonpayable",
      "type": "function"
    },
    {
      "inputs": [
        {
          "internalType": "address",
          "name": "_address",
          "type": "address"
        }
      ],
      "name": "_getBalance",
      "outputs": [
        {
          "internalType": "uint256",
          "name": "",
          "type": "uint256"
        }
      ],
      "stateMutability": "view",
      "type": "function"
    },
    {
      "inputs": [
        {
          "internalType": "address",
          "name": "_address",
          "type": "address"
        },
        {
          "internalType": "uint256",
          "name": "amount",
          "type": "uint256"
        }
      ],
      "name": "_mintTo",
      "outputs": [],
      "stateMutability": "nonpayable",
      "type": "function"
    },
    {
      "inputs": [],
      "name": "_returnOwner",
      "outputs": [
        {
          "internalType": "address",
          "name": "",
          "type": "address"
        }
      ],
      "stateMutability": "view",
      "type": "function"
    },
    {
      "inputs": [
        {
          "internalType": "address",
          "name": "_sellerAddress",
          "type": "address"
        }
      ],
      "name": "_sellerExists",
      "outputs": [
        {
          "internalType": "bool",
          "name": "",
          "type": "bool"
        }
      ],
      "stateMutability": "view",
      "type": "function"
    },
    {
      "inputs": [
        {
          "internalType": "uint256",
          "name": "_amount",
          "type": "uint256"
        },
        {
          "internalType": "address",
          "name": "_sellerAddress",
          "type": "address"
        }
      ],
      "name": "_sellerReward",
      "outputs": [],
      "stateMutability": "nonpayable",
      "type": "function"
    },
    {
      "inputs": [
        {
          "internalType": "address",
          "name": "_userAddress",
          "type": "address"
        }
      ],
      "name": "_userExists",
      "outputs": [
        {
          "internalType": "bool",
          "name": "",
          "type": "bool"
        }
      ],
      "stateMutability": "view",
      "type": "function"
    },
    {
      "inputs": [
        {
          "internalType": "address",
          "name": "owner",
          "type": "address"
        },
        {
          "internalType": "address",
          "name": "spender",
          "type": "address"
        }
      ],
      "name": "allowance",
      "outputs": [
        {
          "internalType": "uint256",
          "name": "",
          "type": "uint256"
        }
      ],
      "stateMutability": "view",
      "type": "function"
    },
    {
      "inputs": [
        {
          "internalType": "address",
          "name": "spender",
          "type": "address"
        },
        {
          "internalType": "uint256",
          "name": "amount",
          "type": "uint256"
        }
      ],
      "name": "approve",
      "outputs": [
        {
          "internalType": "bool",
          "name": "",
          "type": "bool"
        }
      ],
      "stateMutability": "nonpayable",
      "type": "function"
    },
    {
      "inputs": [
        {
          "internalType": "address",
          "name": "account",
          "type": "address"
        }
      ],
      "name": "balanceOf",
      "outputs": [
        {
          "internalType": "uint256",
          "name": "",
          "type": "uint256"
        }
      ],
      "stateMutability": "view",
      "type": "function"
    },
    {
      "inputs": [
        {
          "internalType": "uint256",
          "name": "amount",
          "type": "uint256"
        }
      ],
      "name": "burn",
      "outputs": [],
      "stateMutability": "nonpayable",
      "type": "function"
    },
    {
      "inputs": [
        {
          "internalType": "address",
          "name": "account",
          "type": "address"
        },
        {
          "internalType": "uint256",
          "name": "amount",
          "type": "uint256"
        }
      ],
      "name": "burnFrom",
      "outputs": [],
      "stateMutability": "nonpayable",
      "type": "function"
    },
    {
      "inputs": [],
      "name": "cap",
      "outputs": [
        {
          "internalType": "uint256",
          "name": "",
          "type": "uint256"
        }
      ],
      "stateMutability": "view",
      "type": "function"
    },
    {
      "inputs": [
        {
          "internalType": "address",
          "name": "user",
          "type": "address"
        }
      ],
      "name": "decay",
      "outputs": [],
      "stateMutability": "nonpayable",
      "type": "function"
    },
    {
      "inputs": [],
      "name": "decimals",
      "outputs": [
        {
          "internalType": "uint8",
          "name": "",
          "type": "uint8"
        }
      ],
      "stateMutability": "view",
      "type": "function"
    },
    {
      "inputs": [
        {
          "internalType": "address",
          "name": "spender",
          "type": "address"
        },
        {
          "internalType": "uint256",
          "name": "subtractedValue",
          "type": "uint256"
        }
      ],
      "name": "decreaseAllowance",
      "outputs": [
        {
          "internalType": "bool",
          "name": "",
          "type": "bool"
        }
      ],
      "stateMutability": "nonpayable",
      "type": "function"
    },
    {
      "inputs": [
        {
          "internalType": "address",
          "name": "spender",
          "type": "address"
        },
        {
          "internalType": "uint256",
          "name": "addedValue",
          "type": "uint256"
        }
      ],
      "name": "increaseAllowance",
      "outputs": [
        {
          "internalType": "bool",
          "name": "",
          "type": "bool"
        }
      ],
      "stateMutability": "nonpayable",
      "type": "function"
    },
    {
      "inputs": [
        {
          "internalType": "address",
          "name": "",
          "type": "address"
        }
      ],
      "name": "lastActiveTime",
      "outputs": [
        {
          "internalType": "uint256",
          "name": "",
          "type": "uint256"
        }
      ],
      "stateMutability": "view",
      "type": "function"
    },
    {
      "inputs": [],
      "name": "name",
      "outputs": [
        {
          "internalType": "string",
          "name": "",
          "type": "string"
        }
      ],
      "stateMutability": "view",
      "type": "function"
    },
    {
      "inputs": [],
      "name": "owner",
      "outputs": [
        {
          "internalType": "address",
          "name": "",
          "type": "address"
        }
      ],
      "stateMutability": "view",
      "type": "function"
    },
    {
      "inputs": [
        {
          "internalType": "address",
          "name": "",
          "type": "address"
        }
      ],
      "name": "sellers",
      "outputs": [
        {
          "internalType": "string",
          "name": "storeName",
          "type": "string"
        },
        {
          "internalType": "string",
          "name": "storeAddress",
          "type": "string"
        },
        {
          "internalType": "uint256",
          "name": "balance",
          "type": "uint256"
        }
      ],
      "stateMutability": "view",
      "type": "function"
    },
    {
      "inputs": [
        {
          "internalType": "string",
          "name": "_storeName",
          "type": "string"
        },
        {
          "internalType": "string",
          "name": "_storeAddress",
          "type": "string"
        }
      ],
      "name": "setSellerData",
      "outputs": [
        {
          "internalType": "address",
          "name": "",
          "type": "address"
        }
      ],
      "stateMutability": "nonpayable",
      "type": "function"
    },
    {
      "inputs": [
        {
          "internalType": "string",
          "name": "_name",
          "type": "string"
        },
        {
          "internalType": "string",
          "name": "_email",
          "type": "string"
        }
      ],
      "name": "setUserData",
      "outputs": [
        {
          "internalType": "address",
          "name": "",
          "type": "address"
        }
      ],
      "stateMutability": "nonpayable",
      "type": "function"
    },
    {
      "inputs": [],
      "name": "symbol",
      "outputs": [
        {
          "internalType": "string",
          "name": "",
          "type": "string"
        }
      ],
      "stateMutability": "view",
      "type": "function"
    },
    {
      "inputs": [],
      "name": "totalSupply",
      "outputs": [
        {
          "internalType": "uint256",
          "name": "",
          "type": "uint256"
        }
      ],
      "stateMutability": "view",
      "type": "function"
    },
    {
      "inputs": [
        {
          "internalType": "address",
          "name": "to",
          "type": "address"
        },
        {
          "internalType": "uint256",
          "name": "amount",
          "type": "uint256"
        }
      ],
      "name": "transfer",
      "outputs": [
        {
          "internalType": "bool",
          "name": "",
          "type": "bool"
        }
      ],
      "stateMutability": "nonpayable",
      "type": "function"
    },
    {
      "inputs": [
        {
          "internalType": "address",
          "name": "from",
          "type": "address"
        },
        {
          "internalType": "address",
          "name": "to",
          "type": "address"
        },
        {
          "internalType": "uint256",
          "name": "amount",
          "type": "uint256"
        }
      ],
      "name": "transferFrom",
      "outputs": [
        {
          "internalType": "bool",
          "name": "",
          "type": "bool"
        }
      ],
      "stateMutability": "nonpayable",
      "type": "function"
    },
    {
      "inputs": [
        {
          "internalType": "address",
          "name": "seller",
          "type": "address"
        },
        {
          "internalType": "address",
          "name": "user",
          "type": "address"
        },
        {
          "internalType": "uint256",
          "name": "amount",
          "type": "uint256"
        }
      ],
      "name": "transferFromSellerToUser",
      "outputs": [],
      "stateMutability": "nonpayable",
      "type": "function"
    },
    {
      "inputs": [
        {
          "internalType": "address",
          "name": "",
          "type": "address"
        },
        {
          "internalType": "uint256",
          "name": "",
          "type": "uint256"
        }
      ],
      "name": "userTransactions",
      "outputs": [
        {
          "internalType": "string",
          "name": "transactionType",
          "type": "string"
        },
        {
          "internalType": "address",
          "name": "from",
          "type": "address"
        },
        {
          "internalType": "address",
          "name": "to",
          "type": "address"
        },
        {
          "internalType": "uint256",
          "name": "amount",
          "type": "uint256"
        },
        {
          "internalType": "uint256",
          "name": "timestamp",
          "type": "uint256"
        }
      ],
      "stateMutability": "view",
      "type": "function"
    },
    {
      "inputs": [
        {
          "internalType": "address",
          "name": "",
          "type": "address"
        }
      ],
      "name": "users",
      "outputs": [
        {
          "internalType": "string",
          "name": "name",
          "type": "string"
        },
        {
          "internalType": "string",
          "name": "email",
          "type": "string"
        },
        {
          "internalType": "uint256",
          "name": "balance",
          "type": "uint256"
        }
      ],
      "stateMutability": "view",
      "type": "function"
    }
  ],
  "bytecode": "0x60a06040523480156200001157600080fd5b50604051620045273803806200452783398181016040528101906200003791906200064b565b62000047620001ea60201b60201c565b600a62000055919062000822565b8162000062919062000873565b6040518060400160405280600881526020017f466c6970436f696e0000000000000000000000000000000000000000000000008152506040518060400160405280600381526020017f464c4300000000000000000000000000000000000000000000000000000000008152508160039081620000df919062000b2e565b508060049081620000f1919062000b2e565b505050600081116200013a576040517f08c379a0000000000000000000000000000000000000000000000000000000008152600401620001319062000c76565b60405180910390fd5b80608081815250505033600560006101000a81548173ffffffffffffffffffffffffffffffffffffffff021916908373ffffffffffffffffffffffffffffffffffffffff160217905550620001e2600560009054906101000a900473ffffffffffffffffffffffffffffffffffffffff16620001bb620001ea60201b60201c565b600a620001c9919062000822565b84620001d6919062000873565b620001f360201b60201c565b505062000de5565b60006012905090565b620002058282620003f960201b60201c565b42600860008473ffffffffffffffffffffffffffffffffffffffff1673ffffffffffffffffffffffffffffffffffffffff16815260200190815260200160002081905550600960008373ffffffffffffffffffffffffffffffffffffffff1673ffffffffffffffffffffffffffffffffffffffff1681526020019081526020016000206040518060a001604052806040518060400160405280600681526020017f637265646974000000000000000000000000000000000000000000000000000081525081526020013373ffffffffffffffffffffffffffffffffffffffff1681526020018473ffffffffffffffffffffffffffffffffffffffff168152602001838152602001428152509080600181540180825580915050600190039060005260206000209060050201600090919091909150600082015181600001908162000350919062000b2e565b5060208201518160010160006101000a81548173ffffffffffffffffffffffffffffffffffffffff021916908373ffffffffffffffffffffffffffffffffffffffff16021790555060408201518160020160006101000a81548173ffffffffffffffffffffffffffffffffffffffff021916908373ffffffffffffffffffffffffffffffffffffffff160217905550606082015181600301556080820151816004015550505050565b620004096200048060201b60201c565b816200041a6200048a60201b60201c565b62000426919062000c98565b11156200046a576040517f08c379a0000000000000000000000000000000000000000000000000000000008152600401620004619062000d23565b60405180910390fd5b6200047c82826200049460201b60201c565b5050565b6000608051905090565b6000600254905090565b600073ffffffffffffffffffffffffffffffffffffffff168273ffffffffffffffffffffffffffffffffffffffff160362000506576040517f08c379a0000000000000000000000000000000000000000000000000000000008152600401620004fd9062000d95565b60405180910390fd5b6200051a600083836200060160201b60201c565b80600260008282546200052e919062000c98565b92505081905550806000808473ffffffffffffffffffffffffffffffffffffffff1673ffffffffffffffffffffffffffffffffffffffff168152602001908152602001600020600082825401925050819055508173ffffffffffffffffffffffffffffffffffffffff16600073ffffffffffffffffffffffffffffffffffffffff167fddf252ad1be2c89b69c2b068fc378daa952ba7f163c4a11628f55a4df523b3ef83604051620005e1919062000dc8565b60405180910390a3620005fd600083836200060660201b60201c565b5050565b505050565b505050565b600080fd5b6000819050919050565b620006258162000610565b81146200063157600080fd5b50565b60008151905062000645816200061a565b92915050565b600080604083850312156200066557620006646200060b565b5b6000620006758582860162000634565b9250506020620006888582860162000634565b9150509250929050565b7f4e487b7100000000000000000000000000000000000000000000000000000000600052601160045260246000fd5b60008160011c9050919050565b6000808291508390505b60018511156200072057808604811115620006f857620006f762000692565b5b6001851615620007085780820291505b80810290506200071885620006c1565b9450620006d8565b94509492505050565b6000826200073b57600190506200080e565b816200074b57600090506200080e565b81600181146200076457600281146200076f57620007a5565b60019150506200080e565b60ff84111562000784576200078362000692565b5b8360020a9150848211156200079e576200079d62000692565b5b506200080e565b5060208310610133831016604e8410600b8410161715620007df5782820a905083811115620007d957620007d862000692565b5b6200080e565b620007ee8484846001620006ce565b9250905081840481111562000808576200080762000692565b5b81810290505b9392505050565b600060ff82169050919050565b60006200082f8262000610565b91506200083c8362000815565b92506200086b7fffffffffffffffffffffffffffffffffffffffffffffffffffffffffffffffff848462000729565b905092915050565b6000620008808262000610565b91506200088d8362000610565b92508282026200089d8162000610565b91508282048414831517620008b757620008b662000692565b5b5092915050565b600081519050919050565b7f4e487b7100000000000000000000000000000000000000000000000000000000600052604160045260246000fd5b7f4e487b7100000000000000000000000000000000000000000000000000000000600052602260045260246000fd5b600060028204905060018216806200094057607f821691505b602082108103620009565762000955620008f8565b5b50919050565b60008190508160005260206000209050919050565b60006020601f8301049050919050565b600082821b905092915050565b600060088302620009c07fffffffffffffffffffffffffffffffffffffffffffffffffffffffffffffffff8262000981565b620009cc868362000981565b95508019841693508086168417925050509392505050565b6000819050919050565b600062000a0f62000a0962000a038462000610565b620009e4565b62000610565b9050919050565b6000819050919050565b62000a2b83620009ee565b62000a4362000a3a8262000a16565b8484546200098e565b825550505050565b600090565b62000a5a62000a4b565b62000a6781848462000a20565b505050565b5b8181101562000a8f5762000a8360008262000a50565b60018101905062000a6d565b5050565b601f82111562000ade5762000aa8816200095c565b62000ab38462000971565b8101602085101562000ac3578190505b62000adb62000ad28562000971565b83018262000a6c565b50505b505050565b600082821c905092915050565b600062000b036000198460080262000ae3565b1980831691505092915050565b600062000b1e838362000af0565b9150826002028217905092915050565b62000b3982620008be565b67ffffffffffffffff81111562000b555762000b54620008c9565b5b62000b61825462000927565b62000b6e82828562000a93565b600060209050601f83116001811462000ba6576000841562000b91578287015190505b62000b9d858262000b10565b86555062000c0d565b601f19841662000bb6866200095c565b60005b8281101562000be05784890151825560018201915060208501945060208101905062000bb9565b8683101562000c00578489015162000bfc601f89168262000af0565b8355505b6001600288020188555050505b505050505050565b600082825260208201905092915050565b7f45524332304361707065643a2063617020697320300000000000000000000000600082015250565b600062000c5e60158362000c15565b915062000c6b8262000c26565b602082019050919050565b6000602082019050818103600083015262000c918162000c4f565b9050919050565b600062000ca58262000610565b915062000cb28362000610565b925082820190508082111562000ccd5762000ccc62000692565b5b92915050565b7f45524332304361707065643a2063617020657863656564656400000000000000600082015250565b600062000d0b60198362000c15565b915062000d188262000cd3565b602082019050919050565b6000602082019050818103600083015262000d3e8162000cfc565b9050919050565b7f45524332303a206d696e7420746f20746865207a65726f206164647265737300600082015250565b600062000d7d601f8362000c15565b915062000d8a8262000d45565b602082019050919050565b6000602082019050818103600083015262000db08162000d6e565b9050919050565b62000dc28162000610565b82525050565b600060208201905062000ddf600083018462000db7565b92915050565b60805161372662000e01600039600061084701526137266000f3fe608060405234801561001057600080fd5b50600436106101fb5760003560e01c806370a082311161011a578063c692c7ea116100ad578063d5f7b1441161007c578063d5f7b1441461062e578063d988fee01461064a578063dd62ed3e14610666578063e453d30414610696578063ee21aa64146106c6576101fb565b8063c692c7ea14610596578063ca517a84146105c6578063d0820d87146105e2578063d56c351c146105fe576101fb565b8063a457c2d7116100e9578063a457c2d7146104d0578063a87430ba14610500578063a9059cbb14610532578063b842ec4414610562576101fb565b806370a082311461044857806379cc6790146104785780638da5cb5b1461049457806395d89b41146104b2576101fb565b8063391d2c9c116101925780634ddb4027116101615780634ddb40271461039857806365aa8446146103c857806365b6e1fd146103e65780636d47ab7214610416576101fb565b8063391d2c9c14610312578063395093511461032e5780633d3eeac91461035e57806342966c681461037c576101fb565b8063201a5bd6116101ce578063201a5bd61461028857806323b872dd146102a6578063313ce567146102d6578063355274ea146102f4576101fb565b806306fdde0314610200578063095ea7b31461021e5780631739de0c1461024e57806318160ddd1461026a575b600080fd5b6102086106f6565b60405161021591906122bd565b60405180910390f35b61023860048036038101906102339190612387565b610788565b60405161024591906123e2565b60405180910390f35b610268600480360381019061026391906123fd565b6107ab565b005b6102726107d7565b60405161027f919061244c565b60405180910390f35b6102906107e1565b60405161029d9190612476565b60405180910390f35b6102c060048036038101906102bb9190612491565b61080b565b6040516102cd91906123e2565b60405180910390f35b6102de61083a565b6040516102eb9190612500565b60405180910390f35b6102fc610843565b604051610309919061244c565b60405180910390f35b61032c600480360381019061032791906123fd565b61086b565b005b61034860048036038101906103439190612387565b610897565b60405161035591906123e2565b60405180910390f35b6103666108ce565b604051610373919061244c565b60405180910390f35b6103966004803603810190610391919061251b565b6108d5565b005b6103b260048036038101906103ad9190612548565b6108e9565b6040516103bf919061244c565b60405180910390f35b6103d0610901565b6040516103dd919061244c565b60405180910390f35b61040060048036038101906103fb9190612548565b610906565b60405161040d91906123e2565b60405180910390f35b610430600480360381019061042b9190612548565b610960565b60405161043f93929190612575565b60405180910390f35b610462600480360381019061045d9190612548565b610a9a565b60405161046f919061244c565b60405180910390f35b610492600480360381019061048d9190612387565b610ae2565b005b61049c610b02565b6040516104a99190612476565b60405180910390f35b6104ba610b28565b6040516104c791906122bd565b60405180910390f35b6104ea60048036038101906104e59190612387565b610bba565b6040516104f791906123e2565b60405180910390f35b61051a60048036038101906105159190612548565b610c31565b60405161052993929190612575565b60405180910390f35b61054c60048036038101906105479190612387565b610d6b565b60405161055991906123e2565b60405180910390f35b61057c60048036038101906105779190612387565b610d8e565b60405161058d9594939291906125ba565b60405180910390f35b6105b060048036038101906105ab9190612548565b610ea9565b6040516105bd91906123e2565b60405180910390f35b6105e060048036038101906105db9190612548565b610f03565b005b6105fc60048036038101906105f79190612387565b61100f565b005b61061860048036038101906106139190612749565b61103b565b6040516106259190612476565b60405180910390f35b61064860048036038101906106439190612387565b611129565b005b610664600480360381019061065f9190612491565b611181565b005b610680600480360381019061067b91906127c1565b611622565b60405161068d919061244c565b60405180910390f35b6106b060048036038101906106ab9190612749565b6116a9565b6040516106bd9190612476565b60405180910390f35b6106e060048036038101906106db9190612548565b611797565b6040516106ed919061244c565b60405180910390f35b60606003805461070590612830565b80601f016020809104026020016040519081016040528092919081815260200182805461073190612830565b801561077e5780601f106107535761010080835404028352916020019161077e565b820191906000526020600020905b81548152906001019060200180831161076157829003601f168201915b5050505050905090565b6000806107936117c7565b90506107a08185856117cf565b600191505092915050565b6107d3816107b761083a565b600a6107c391906129c3565b846107ce9190612a0e565b611998565b5050565b6000600254905090565b6000600560009054906101000a900473ffffffffffffffffffffffffffffffffffffffff16905090565b6000806108166117c7565b9050610823858285611b94565b61082e858585611c20565b60019150509392505050565b60006012905090565b60007f0000000000000000000000000000000000000000000000000000000000000000905090565b6108938161087761083a565b600a61088391906129c3565b8461088e9190612a0e565b611998565b5050565b6000806108a26117c7565b90506108c38185856108b48589611622565b6108be9190612a50565b6117cf565b600191505092915050565b62ed4e0081565b6108e66108e06117c7565b82611e96565b50565b60086020528060005260406000206000915090505481565b600a81565b600080600760008473ffffffffffffffffffffffffffffffffffffffff1673ffffffffffffffffffffffffffffffffffffffff168152602001908152602001600020600001805461095690612830565b9050119050919050565b600760205280600052604060002060009150905080600001805461098390612830565b80601f01602080910402602001604051908101604052809291908181526020018280546109af90612830565b80156109fc5780601f106109d1576101008083540402835291602001916109fc565b820191906000526020600020905b8154815290600101906020018083116109df57829003601f168201915b505050505090806001018054610a1190612830565b80601f0160208091040260200160405190810160405280929190818152602001828054610a3d90612830565b8015610a8a5780601f10610a5f57610100808354040283529160200191610a8a565b820191906000526020600020905b815481529060010190602001808311610a6d57829003601f168201915b5050505050908060020154905083565b60008060008373ffffffffffffffffffffffffffffffffffffffff1673ffffffffffffffffffffffffffffffffffffffff168152602001908152602001600020549050919050565b610af482610aee6117c7565b83611b94565b610afe8282611e96565b5050565b600560009054906101000a900473ffffffffffffffffffffffffffffffffffffffff1681565b606060048054610b3790612830565b80601f0160208091040260200160405190810160405280929190818152602001828054610b6390612830565b8015610bb05780601f10610b8557610100808354040283529160200191610bb0565b820191906000526020600020905b815481529060010190602001808311610b9357829003601f168201915b5050505050905090565b600080610bc56117c7565b90506000610bd38286611622565b905083811015610c18576040517f08c379a0000000000000000000000000000000000000000000000000000000008152600401610c0f90612af6565b60405180910390fd5b610c2582868684036117cf565b60019250505092915050565b6006602052806000526040600020600091509050806000018054610c5490612830565b80601f0160208091040260200160405190810160405280929190818152602001828054610c8090612830565b8015610ccd5780601f10610ca257610100808354040283529160200191610ccd565b820191906000526020600020905b815481529060010190602001808311610cb057829003601f168201915b505050505090806001018054610ce290612830565b80601f0160208091040260200160405190810160405280929190818152602001828054610d0e90612830565b8015610d5b5780601f10610d3057610100808354040283529160200191610d5b565b820191906000526020600020905b815481529060010190602001808311610d3e57829003601f168201915b5050505050908060020154905083565b600080610d766117c7565b9050610d83818585611c20565b600191505092915050565b60096020528160005260406000208181548110610daa57600080fd5b906000526020600020906005020160009150915050806000018054610dce90612830565b80601f0160208091040260200160405190810160405280929190818152602001828054610dfa90612830565b8015610e475780601f10610e1c57610100808354040283529160200191610e47565b820191906000526020600020905b815481529060010190602001808311610e2a57829003601f168201915b5050505050908060010160009054906101000a900473ffffffffffffffffffffffffffffffffffffffff16908060020160009054906101000a900473ffffffffffffffffffffffffffffffffffffffff16908060030154908060040154905085565b600080600660008473ffffffffffffffffffffffffffffffffffffffff1673ffffffffffffffffffffffffffffffffffffffff1681526020019081526020016000206000018054610ef990612830565b9050119050919050565b6000600860008373ffffffffffffffffffffffffffffffffffffffff1673ffffffffffffffffffffffffffffffffffffffff1681526020019081526020016000205442610f509190612b16565b905062ed4e008111610f97576040517f08c379a0000000000000000000000000000000000000000000000000000000008152600401610f8e90612b96565b60405180910390fd5b60006064600a610fa685610a9a565b610fb09190612a0e565b610fba9190612be5565b9050610fc68382611e96565b42600860008573ffffffffffffffffffffffffffffffffffffffff1673ffffffffffffffffffffffffffffffffffffffff16815260200190815260200160002081905550505050565b6110378261101b61083a565b600a61102791906129c3565b836110329190612a0e565b611998565b5050565b600061104633610ea9565b15611086576040517f08c379a000000000000000000000000000000000000000000000000000000000815260040161107d90612c62565b60405180910390fd5b600060405180606001604052808581526020018481526020016000815250905080600660003373ffffffffffffffffffffffffffffffffffffffff1673ffffffffffffffffffffffffffffffffffffffff16815260200190815260200160002060008201518160000190816110fb9190612e2e565b5060208201518160010190816111119190612e2e565b50604082015181600201559050503391505092915050565b61113282610a9a565b8110611173576040517f08c379a000000000000000000000000000000000000000000000000000000000815260040161116a90612f4c565b60405180910390fd5b61117d8282611e96565b5050565b8273ffffffffffffffffffffffffffffffffffffffff163373ffffffffffffffffffffffffffffffffffffffff16146111ef576040517f08c379a00000000000000000000000000000000000000000000000000000000081526004016111e690612fde565b60405180910390fd5b6111f883610906565b611237576040517f08c379a000000000000000000000000000000000000000000000000000000000815260040161122e9061304a565b60405180910390fd5b61124082610ea9565b61127f576040517f08c379a0000000000000000000000000000000000000000000000000000000008152600401611276906130b6565b60405180910390fd5b61128a83838361080b565b6112c9576040517f08c379a00000000000000000000000000000000000000000000000000000000081526004016112c090613122565b60405180910390fd5b600960008473ffffffffffffffffffffffffffffffffffffffff1673ffffffffffffffffffffffffffffffffffffffff1681526020019081526020016000206040518060a001604052806040518060400160405280600581526020017f646562697400000000000000000000000000000000000000000000000000000081525081526020018573ffffffffffffffffffffffffffffffffffffffff1681526020018473ffffffffffffffffffffffffffffffffffffffff16815260200183815260200142815250908060018154018082558091505060019003906000526020600020906005020160009091909190915060008201518160000190816113ce9190612e2e565b5060208201518160010160006101000a81548173ffffffffffffffffffffffffffffffffffffffff021916908373ffffffffffffffffffffffffffffffffffffffff16021790555060408201518160020160006101000a81548173ffffffffffffffffffffffffffffffffffffffff021916908373ffffffffffffffffffffffffffffffffffffffff16021790555060608201518160030155608082015181600401555050600960008373ffffffffffffffffffffffffffffffffffffffff1673ffffffffffffffffffffffffffffffffffffffff1681526020019081526020016000206040518060a001604052806040518060400160405280600681526020017f637265646974000000000000000000000000000000000000000000000000000081525081526020018573ffffffffffffffffffffffffffffffffffffffff1681526020018473ffffffffffffffffffffffffffffffffffffffff16815260200183815260200142815250908060018154018082558091505060019003906000526020600020906005020160009091909190915060008201518160000190816115789190612e2e565b5060208201518160010160006101000a81548173ffffffffffffffffffffffffffffffffffffffff021916908373ffffffffffffffffffffffffffffffffffffffff16021790555060408201518160020160006101000a81548173ffffffffffffffffffffffffffffffffffffffff021916908373ffffffffffffffffffffffffffffffffffffffff16021790555060608201518160030155608082015181600401555050505050565b6000600160008473ffffffffffffffffffffffffffffffffffffffff1673ffffffffffffffffffffffffffffffffffffffff16815260200190815260200160002060008373ffffffffffffffffffffffffffffffffffffffff1673ffffffffffffffffffffffffffffffffffffffff16815260200190815260200160002054905092915050565b60006116b433610906565b156116f4576040517f08c379a00000000000000000000000000000000000000000000000000000000081526004016116eb9061318e565b60405180910390fd5b600060405180606001604052808581526020018481526020016000815250905080600760003373ffffffffffffffffffffffffffffffffffffffff1673ffffffffffffffffffffffffffffffffffffffff16815260200190815260200160002060008201518160000190816117699190612e2e565b50602082015181600101908161177f9190612e2e565b50604082015181600201559050503391505092915050565b60006117a161083a565b600a6117ad91906129c3565b6117b683610a9a565b6117c09190612be5565b9050919050565b600033905090565b600073ffffffffffffffffffffffffffffffffffffffff168373ffffffffffffffffffffffffffffffffffffffff160361183e576040517f08c379a000000000000000000000000000000000000000000000000000000000815260040161183590613220565b60405180910390fd5b600073ffffffffffffffffffffffffffffffffffffffff168273ffffffffffffffffffffffffffffffffffffffff16036118ad576040517f08c379a00000000000000000000000000000000000000000000000000000000081526004016118a4906132b2565b60405180910390fd5b80600160008573ffffffffffffffffffffffffffffffffffffffff1673ffffffffffffffffffffffffffffffffffffffff16815260200190815260200160002060008473ffffffffffffffffffffffffffffffffffffffff1673ffffffffffffffffffffffffffffffffffffffff168152602001908152602001600020819055508173ffffffffffffffffffffffffffffffffffffffff168373ffffffffffffffffffffffffffffffffffffffff167f8c5be1e5ebec7d5bd14f71427d1e84f3dd0314c0f7b2291e5b200ac8c7c3b9258360405161198b919061244c565b60405180910390a3505050565b6119a28282612063565b42600860008473ffffffffffffffffffffffffffffffffffffffff1673ffffffffffffffffffffffffffffffffffffffff16815260200190815260200160002081905550600960008373ffffffffffffffffffffffffffffffffffffffff1673ffffffffffffffffffffffffffffffffffffffff1681526020019081526020016000206040518060a001604052806040518060400160405280600681526020017f637265646974000000000000000000000000000000000000000000000000000081525081526020013373ffffffffffffffffffffffffffffffffffffffff1681526020018473ffffffffffffffffffffffffffffffffffffffff1681526020018381526020014281525090806001815401808255809150506001900390600052602060002090600502016000909190919091506000820151816000019081611aeb9190612e2e565b5060208201518160010160006101000a81548173ffffffffffffffffffffffffffffffffffffffff021916908373ffffffffffffffffffffffffffffffffffffffff16021790555060408201518160020160006101000a81548173ffffffffffffffffffffffffffffffffffffffff021916908373ffffffffffffffffffffffffffffffffffffffff160217905550606082015181600301556080820151816004015550505050565b6000611ba08484611622565b90507fffffffffffffffffffffffffffffffffffffffffffffffffffffffffffffffff8114611c1a5781811015611c0c576040517f08c379a0000000000000000000000000000000000000000000000000000000008152600401611c039061331e565b60405180910390fd5b611c1984848484036117cf565b5b50505050565b600073ffffffffffffffffffffffffffffffffffffffff168373ffffffffffffffffffffffffffffffffffffffff1603611c8f576040517f08c379a0000000000000000000000000000000000000000000000000000000008152600401611c86906133b0565b60405180910390fd5b600073ffffffffffffffffffffffffffffffffffffffff168273ffffffffffffffffffffffffffffffffffffffff1603611cfe576040517f08c379a0000000000000000000000000000000000000000000000000000000008152600401611cf590613442565b60405180910390fd5b611d098383836120cd565b60008060008573ffffffffffffffffffffffffffffffffffffffff1673ffffffffffffffffffffffffffffffffffffffff16815260200190815260200160002054905081811015611d8f576040517f08c379a0000000000000000000000000000000000000000000000000000000008152600401611d86906134d4565b60405180910390fd5b8181036000808673ffffffffffffffffffffffffffffffffffffffff1673ffffffffffffffffffffffffffffffffffffffff16815260200190815260200160002081905550816000808573ffffffffffffffffffffffffffffffffffffffff1673ffffffffffffffffffffffffffffffffffffffff168152602001908152602001600020600082825401925050819055508273ffffffffffffffffffffffffffffffffffffffff168473ffffffffffffffffffffffffffffffffffffffff167fddf252ad1be2c89b69c2b068fc378daa952ba7f163c4a11628f55a4df523b3ef84604051611e7d919061244c565b60405180910390a3611e908484846120d2565b50505050565b600073ffffffffffffffffffffffffffffffffffffffff168273ffffffffffffffffffffffffffffffffffffffff1603611f05576040517f08c379a0000000000000000000000000000000000000000000000000000000008152600401611efc90613566565b60405180910390fd5b611f11826000836120cd565b60008060008473ffffffffffffffffffffffffffffffffffffffff1673ffffffffffffffffffffffffffffffffffffffff16815260200190815260200160002054905081811015611f97576040517f08c379a0000000000000000000000000000000000000000000000000000000008152600401611f8e906135f8565b60405180910390fd5b8181036000808573ffffffffffffffffffffffffffffffffffffffff1673ffffffffffffffffffffffffffffffffffffffff1681526020019081526020016000208190555081600260008282540392505081905550600073ffffffffffffffffffffffffffffffffffffffff168373ffffffffffffffffffffffffffffffffffffffff167fddf252ad1be2c89b69c2b068fc378daa952ba7f163c4a11628f55a4df523b3ef8460405161204a919061244c565b60405180910390a361205e836000846120d2565b505050565b61206b610843565b816120746107d7565b61207e9190612a50565b11156120bf576040517f08c379a00000000000000000000000000000000000000000000000000000000081526004016120b690613664565b60405180910390fd5b6120c982826120d7565b5050565b505050565b505050565b600073ffffffffffffffffffffffffffffffffffffffff168273ffffffffffffffffffffffffffffffffffffffff1603612146576040517f08c379a000000000000000000000000000000000000000000000000000000000815260040161213d906136d0565b60405180910390fd5b612152600083836120cd565b80600260008282546121649190612a50565b92505081905550806000808473ffffffffffffffffffffffffffffffffffffffff1673ffffffffffffffffffffffffffffffffffffffff168152602001908152602001600020600082825401925050819055508173ffffffffffffffffffffffffffffffffffffffff16600073ffffffffffffffffffffffffffffffffffffffff167fddf252ad1be2c89b69c2b068fc378daa952ba7f163c4a11628f55a4df523b3ef83604051612215919061244c565b60405180910390a3612229600083836120d2565b5050565b600081519050919050565b600082825260208201905092915050565b60005b8381101561226757808201518184015260208101905061224c565b60008484015250505050565b6000601f19601f8301169050919050565b600061228f8261222d565b6122998185612238565b93506122a9818560208601612249565b6122b281612273565b840191505092915050565b600060208201905081810360008301526122d78184612284565b905092915050565b6000604051905090565b600080fd5b600080fd5b600073ffffffffffffffffffffffffffffffffffffffff82169050919050565b600061231e826122f3565b9050919050565b61232e81612313565b811461233957600080fd5b50565b60008135905061234b81612325565b92915050565b6000819050919050565b61236481612351565b811461236f57600080fd5b50565b6000813590506123818161235b565b92915050565b6000806040838503121561239e5761239d6122e9565b5b60006123ac8582860161233c565b92505060206123bd85828601612372565b9150509250929050565b60008115159050919050565b6123dc816123c7565b82525050565b60006020820190506123f760008301846123d3565b92915050565b60008060408385031215612414576124136122e9565b5b600061242285828601612372565b92505060206124338582860161233c565b9150509250929050565b61244681612351565b82525050565b6000602082019050612461600083018461243d565b92915050565b61247081612313565b82525050565b600060208201905061248b6000830184612467565b92915050565b6000806000606084860312156124aa576124a96122e9565b5b60006124b88682870161233c565b93505060206124c98682870161233c565b92505060406124da86828701612372565b9150509250925092565b600060ff82169050919050565b6124fa816124e4565b82525050565b600060208201905061251560008301846124f1565b92915050565b600060208284031215612531576125306122e9565b5b600061253f84828501612372565b91505092915050565b60006020828403121561255e5761255d6122e9565b5b600061256c8482850161233c565b91505092915050565b6000606082019050818103600083015261258f8186612284565b905081810360208301526125a38185612284565b90506125b2604083018461243d565b949350505050565b600060a08201905081810360008301526125d48188612284565b90506125e36020830187612467565b6125f06040830186612467565b6125fd606083018561243d565b61260a608083018461243d565b9695505050505050565b600080fd5b600080fd5b7f4e487b7100000000000000000000000000000000000000000000000000000000600052604160045260246000fd5b61265682612273565b810181811067ffffffffffffffff821117156126755761267461261e565b5b80604052505050565b60006126886122df565b9050612694828261264d565b919050565b600067ffffffffffffffff8211156126b4576126b361261e565b5b6126bd82612273565b9050602081019050919050565b82818337600083830152505050565b60006126ec6126e784612699565b61267e565b90508281526020810184848401111561270857612707612619565b5b6127138482856126ca565b509392505050565b600082601f8301126127305761272f612614565b5b81356127408482602086016126d9565b91505092915050565b600080604083850312156127605761275f6122e9565b5b600083013567ffffffffffffffff81111561277e5761277d6122ee565b5b61278a8582860161271b565b925050602083013567ffffffffffffffff8111156127ab576127aa6122ee565b5b6127b78582860161271b565b9150509250929050565b600080604083850312156127d8576127d76122e9565b5b60006127e68582860161233c565b92505060206127f78582860161233c565b9150509250929050565b7f4e487b7100000000000000000000000000000000000000000000000000000000600052602260045260246000fd5b6000600282049050600182168061284857607f821691505b60208210810361285b5761285a612801565b5b50919050565b7f4e487b7100000000000000000000000000000000000000000000000000000000600052601160045260246000fd5b60008160011c9050919050565b6000808291508390505b60018511156128e7578086048111156128c3576128c2612861565b5b60018516156128d25780820291505b80810290506128e085612890565b94506128a7565b94509492505050565b60008261290057600190506129bc565b8161290e57600090506129bc565b8160018114612924576002811461292e5761295d565b60019150506129bc565b60ff8411156129405761293f612861565b5b8360020a91508482111561295757612956612861565b5b506129bc565b5060208310610133831016604e8410600b84101617156129925782820a90508381111561298d5761298c612861565b5b6129bc565b61299f848484600161289d565b925090508184048111156129b6576129b5612861565b5b81810290505b9392505050565b60006129ce82612351565b91506129d9836124e4565b9250612a067fffffffffffffffffffffffffffffffffffffffffffffffffffffffffffffffff84846128f0565b905092915050565b6000612a1982612351565b9150612a2483612351565b9250828202612a3281612351565b91508282048414831517612a4957612a48612861565b5b5092915050565b6000612a5b82612351565b9150612a6683612351565b9250828201905080821115612a7e57612a7d612861565b5b92915050565b7f45524332303a2064656372656173656420616c6c6f77616e63652062656c6f7760008201527f207a65726f000000000000000000000000000000000000000000000000000000602082015250565b6000612ae0602583612238565b9150612aeb82612a84565b604082019050919050565b60006020820190508181036000830152612b0f81612ad3565b9050919050565b6000612b2182612351565b9150612b2c83612351565b9250828203905081811115612b4457612b43612861565b5b92915050565b7f436f696e732068617665206e6f74207965742065787069726564000000000000600082015250565b6000612b80601a83612238565b9150612b8b82612b4a565b602082019050919050565b60006020820190508181036000830152612baf81612b73565b9050919050565b7f4e487b7100000000000000000000000000000000000000000000000000000000600052601260045260246000fd5b6000612bf082612351565b9150612bfb83612351565b925082612c0b57612c0a612bb6565b5b828204905092915050565b7f5573657220616c72656164792065786973747321000000000000000000000000600082015250565b6000612c4c601483612238565b9150612c5782612c16565b602082019050919050565b60006020820190508181036000830152612c7b81612c3f565b9050919050565b60008190508160005260206000209050919050565b60006020601f8301049050919050565b600082821b905092915050565b600060088302612ce47fffffffffffffffffffffffffffffffffffffffffffffffffffffffffffffffff82612ca7565b612cee8683612ca7565b95508019841693508086168417925050509392505050565b6000819050919050565b6000612d2b612d26612d2184612351565b612d06565b612351565b9050919050565b6000819050919050565b612d4583612d10565b612d59612d5182612d32565b848454612cb4565b825550505050565b600090565b612d6e612d61565b612d79818484612d3c565b505050565b5b81811015612d9d57612d92600082612d66565b600181019050612d7f565b5050565b601f821115612de257612db381612c82565b612dbc84612c97565b81016020851015612dcb578190505b612ddf612dd785612c97565b830182612d7e565b50505b505050565b600082821c905092915050565b6000612e0560001984600802612de7565b1980831691505092915050565b6000612e1e8383612df4565b9150826002028217905092915050565b612e378261222d565b67ffffffffffffffff811115612e5057612e4f61261e565b5b612e5a8254612830565b612e65828285612da1565b600060209050601f831160018114612e985760008415612e86578287015190505b612e908582612e12565b865550612ef8565b601f198416612ea686612c82565b60005b82811015612ece57848901518255600182019150602085019450602081019050612ea9565b86831015612eeb5784890151612ee7601f891682612df4565b8355505b6001600288020188555050505b505050505050565b7f4275726e20616d6f756e7420657863656564732062616c616e63650000000000600082015250565b6000612f36601b83612238565b9150612f4182612f00565b602082019050919050565b60006020820190508181036000830152612f6581612f29565b9050919050565b7f4f6e6c79207468652073656c6c65722063616e20696e6974696174652074686560008201527f207472616e736665720000000000000000000000000000000000000000000000602082015250565b6000612fc8602983612238565b9150612fd382612f6c565b604082019050919050565b60006020820190508181036000830152612ff781612fbb565b9050919050565b7f53656c6c657220646f6573206e6f742065786973740000000000000000000000600082015250565b6000613034601583612238565b915061303f82612ffe565b602082019050919050565b6000602082019050818103600083015261306381613027565b9050919050565b7f5573657220646f6573206e6f7420657869737400000000000000000000000000600082015250565b60006130a0601383612238565b91506130ab8261306a565b602082019050919050565b600060208201905081810360008301526130cf81613093565b9050919050565b7f5472616e73666572206661696c65640000000000000000000000000000000000600082015250565b600061310c600f83612238565b9150613117826130d6565b602082019050919050565b6000602082019050818103600083015261313b816130ff565b9050919050565b7f53656c6c657220616c7265616479206578697374732100000000000000000000600082015250565b6000613178601683612238565b915061318382613142565b602082019050919050565b600060208201905081810360008301526131a78161316b565b9050919050565b7f45524332303a20617070726f76652066726f6d20746865207a65726f2061646460008201527f7265737300000000000000000000000000000000000000000000000000000000602082015250565b600061320a602483612238565b9150613215826131ae565b604082019050919050565b60006020820190508181036000830152613239816131fd565b9050919050565b7f45524332303a20617070726f766520746f20746865207a65726f20616464726560008201527f7373000000000000000000000000000000000000000000000000000000000000602082015250565b600061329c602283612238565b91506132a782613240565b604082019050919050565b600060208201905081810360008301526132cb8161328f565b9050919050565b7f45524332303a20696e73756666696369656e7420616c6c6f77616e6365000000600082015250565b6000613308601d83612238565b9150613313826132d2565b602082019050919050565b60006020820190508181036000830152613337816132fb565b9050919050565b7f45524332303a207472616e736665722066726f6d20746865207a65726f20616460008201527f6472657373000000000000000000000000000000000000000000000000000000602082015250565b600061339a602583612238565b91506133a58261333e565b604082019050919050565b600060208201905081810360008301526133c98161338d565b9050919050565b7f45524332303a207472616e7366657220746f20746865207a65726f206164647260008201527f6573730000000000000000000000000000000000000000000000000000000000602082015250565b600061342c602383612238565b9150613437826133d0565b604082019050919050565b6000602082019050818103600083015261345b8161341f565b9050919050565b7f45524332303a207472616e7366657220616d6f756e742065786365656473206260008201527f616c616e63650000000000000000000000000000000000000000000000000000602082015250565b60006134be602683612238565b91506134c982613462565b604082019050919050565b600060208201905081810360008301526134ed816134b1565b9050919050565b7f45524332303a206275726e2066726f6d20746865207a65726f2061646472657360008201527f7300000000000000000000000000000000000000000000000000000000000000602082015250565b6000613550602183612238565b915061355b826134f4565b604082019050919050565b6000602082019050818103600083015261357f81613543565b9050919050565b7f45524332303a206275726e20616d6f756e7420657863656564732062616c616e60008201527f6365000000000000000000000000000000000000000000000000000000000000602082015250565b60006135e2602283612238565b91506135ed82613586565b604082019050919050565b60006020820190508181036000830152613611816135d5565b9050919050565b7f45524332304361707065643a2063617020657863656564656400000000000000600082015250565b600061364e601983612238565b915061365982613618565b602082019050919050565b6000602082019050818103600083015261367d81613641565b9050919050565b7f45524332303a206d696e7420746f20746865207a65726f206164647265737300600082015250565b60006136ba601f83612238565b91506136c582613684565b602082019050919050565b600060208201905081810360008301526136e9816136ad565b905091905056fea2646970667358221220dad1dc6b4dd0b019a447603e97ddc338d41ca6bc84d39e17ea7b774bb7072ea964736f6c63430008130033",
  "linkReferences": {},
  "deployedLinkReferences": {}
}