{
  "_format": "hh-sol-artifact-1",
  "contractName": "FlipCoin",
  "sourceName": "contracts/FlipCoin.sol",
  "abi": [
    {
      "inputs": [
        {
          "internalType": "uint256",
          "name": "initialAmount",
          "type": "uint256"
        }
      ],
      "stateMutability": "nonpayable",
      "type": "constructor"
    },
    {
      "anonymous": false,
      "inputs": [
        {
          "indexed": true,
          "internalType": "address",
          "name": "owner",
          "type": "address"
        },
        {
          "indexed": true,
          "internalType": "address",
          "name": "spender",
          "type": "address"
        },
        {
          "indexed": false,
          "internalType": "uint256",
          "name": "value",
          "type": "uint256"
        }
      ],
      "name": "Approval",
      "type": "event"
    },
    {
      "anonymous": false,
      "inputs": [
        {
          "indexed": true,
          "internalType": "string",
          "name": "transactionType",
          "type": "string"
        },
        {
          "indexed": true,
          "internalType": "address",
          "name": "from",
          "type": "address"
        },
        {
          "indexed": true,
          "internalType": "address",
          "name": "to",
          "type": "address"
        },
        {
          "indexed": false,
          "internalType": "uint256",
          "name": "amount",
          "type": "uint256"
        },
        {
          "indexed": false,
          "internalType": "uint256",
          "name": "timestamp",
          "type": "uint256"
        }
      ],
      "name": "NewTransaction",
      "type": "event"
    },
    {
      "anonymous": false,
      "inputs": [
        {
          "indexed": true,
          "internalType": "address",
          "name": "from",
          "type": "address"
        },
        {
          "indexed": true,
          "internalType": "address",
          "name": "to",
          "type": "address"
        },
        {
          "indexed": false,
          "internalType": "uint256",
          "name": "value",
          "type": "uint256"
        }
      ],
      "name": "Transfer",
      "type": "event"
    },
    {
      "inputs": [],
      "name": "DECAY_PERCENTAGE",
      "outputs": [
        {
          "internalType": "uint256",
          "name": "",
          "type": "uint256"
        }
      ],
      "stateMutability": "view",
      "type": "function"
    },
    {
      "inputs": [],
      "name": "EXPIRY_DURATION",
      "outputs": [
        {
          "internalType": "uint256",
          "name": "",
          "type": "uint256"
        }
      ],
      "stateMutability": "view",
      "type": "function"
    },
    {
      "inputs": [
        {
          "internalType": "address",
          "name": "_address",
          "type": "address"
        },
        {
          "internalType": "uint256",
          "name": "amount",
          "type": "uint256"
        }
      ],
      "name": "_burnToken",
      "outputs": [],
      "stateMutability": "nonpayable",
      "type": "function"
    },
    {
      "inputs": [
        {
          "internalType": "uint256",
          "name": "_amount",
          "type": "uint256"
        },
        {
          "internalType": "address",
          "name": "_customerAddress",
          "type": "address"
        }
      ],
      "name": "_customerReward",
      "outputs": [],
      "stateMutability": "nonpayable",
      "type": "function"
    },
    {
      "inputs": [
        {
          "internalType": "address",
          "name": "_address",
          "type": "address"
        }
      ],
      "name": "_getBalance",
      "outputs": [
        {
          "internalType": "uint256",
          "name": "",
          "type": "uint256"
        }
      ],
      "stateMutability": "view",
      "type": "function"
    },
    {
      "inputs": [
        {
          "internalType": "address",
          "name": "_address",
          "type": "address"
        },
        {
          "internalType": "uint256",
          "name": "amount",
          "type": "uint256"
        }
      ],
      "name": "_mintTo",
      "outputs": [],
      "stateMutability": "nonpayable",
      "type": "function"
    },
    {
      "inputs": [],
      "name": "_returnOwner",
      "outputs": [
        {
          "internalType": "address",
          "name": "",
          "type": "address"
        }
      ],
      "stateMutability": "view",
      "type": "function"
    },
    {
      "inputs": [
        {
          "internalType": "address",
          "name": "_sellerAddress",
          "type": "address"
        }
      ],
      "name": "_sellerExists",
      "outputs": [
        {
          "internalType": "bool",
          "name": "",
          "type": "bool"
        }
      ],
      "stateMutability": "view",
      "type": "function"
    },
    {
      "inputs": [
        {
          "internalType": "uint256",
          "name": "_amount",
          "type": "uint256"
        },
        {
          "internalType": "address",
          "name": "_sellerAddress",
          "type": "address"
        }
      ],
      "name": "_sellerReward",
      "outputs": [],
      "stateMutability": "nonpayable",
      "type": "function"
    },
    {
      "inputs": [
        {
          "internalType": "address",
          "name": "_userAddress",
          "type": "address"
        }
      ],
      "name": "_userExists",
      "outputs": [
        {
          "internalType": "bool",
          "name": "",
          "type": "bool"
        }
      ],
      "stateMutability": "view",
      "type": "function"
    },
    {
      "inputs": [],
      "name": "_userId",
      "outputs": [
        {
          "internalType": "uint256",
          "name": "",
          "type": "uint256"
        }
      ],
      "stateMutability": "view",
      "type": "function"
    },
    {
      "inputs": [
        {
          "internalType": "address",
          "name": "owner",
          "type": "address"
        },
        {
          "internalType": "address",
          "name": "spender",
          "type": "address"
        }
      ],
      "name": "allowance",
      "outputs": [
        {
          "internalType": "uint256",
          "name": "",
          "type": "uint256"
        }
      ],
      "stateMutability": "view",
      "type": "function"
    },
    {
      "inputs": [
        {
          "internalType": "address",
          "name": "spender",
          "type": "address"
        },
        {
          "internalType": "uint256",
          "name": "amount",
          "type": "uint256"
        }
      ],
      "name": "approve",
      "outputs": [
        {
          "internalType": "bool",
          "name": "",
          "type": "bool"
        }
      ],
      "stateMutability": "nonpayable",
      "type": "function"
    },
    {
      "inputs": [
        {
          "internalType": "address",
          "name": "",
          "type": "address"
        }
      ],
      "name": "balance",
      "outputs": [
        {
          "internalType": "uint256",
          "name": "",
          "type": "uint256"
        }
      ],
      "stateMutability": "view",
      "type": "function"
    },
    {
      "inputs": [
        {
          "internalType": "address",
          "name": "account",
          "type": "address"
        }
      ],
      "name": "balanceOf",
      "outputs": [
        {
          "internalType": "uint256",
          "name": "",
          "type": "uint256"
        }
      ],
      "stateMutability": "view",
      "type": "function"
    },
    {
      "inputs": [
        {
          "internalType": "uint256",
          "name": "amount",
          "type": "uint256"
        }
      ],
      "name": "burn",
      "outputs": [],
      "stateMutability": "nonpayable",
      "type": "function"
    },
    {
      "inputs": [
        {
          "internalType": "address",
          "name": "account",
          "type": "address"
        },
        {
          "internalType": "uint256",
          "name": "amount",
          "type": "uint256"
        }
      ],
      "name": "burnFrom",
      "outputs": [],
      "stateMutability": "nonpayable",
      "type": "function"
    },
    {
      "inputs": [
        {
          "internalType": "address",
          "name": "user",
          "type": "address"
        }
      ],
      "name": "decay",
      "outputs": [],
      "stateMutability": "nonpayable",
      "type": "function"
    },
    {
      "inputs": [],
      "name": "decimals",
      "outputs": [
        {
          "internalType": "uint8",
          "name": "",
          "type": "uint8"
        }
      ],
      "stateMutability": "view",
      "type": "function"
    },
    {
      "inputs": [
        {
          "internalType": "address",
          "name": "spender",
          "type": "address"
        },
        {
          "internalType": "uint256",
          "name": "subtractedValue",
          "type": "uint256"
        }
      ],
      "name": "decreaseAllowance",
      "outputs": [
        {
          "internalType": "bool",
          "name": "",
          "type": "bool"
        }
      ],
      "stateMutability": "nonpayable",
      "type": "function"
    },
    {
      "inputs": [
        {
          "internalType": "address",
          "name": "user",
          "type": "address"
        }
      ],
      "name": "getAllTransactions",
      "outputs": [
        {
          "internalType": "string[]",
          "name": "transactionTypes",
          "type": "string[]"
        },
        {
          "internalType": "address[]",
          "name": "fromAddresses",
          "type": "address[]"
        },
        {
          "internalType": "address[]",
          "name": "toAddresses",
          "type": "address[]"
        },
        {
          "internalType": "uint256[]",
          "name": "amounts",
          "type": "uint256[]"
        },
        {
          "internalType": "uint256[]",
          "name": "timestamps",
          "type": "uint256[]"
        }
      ],
      "stateMutability": "view",
      "type": "function"
    },
    {
      "inputs": [
        {
          "internalType": "address",
          "name": "user",
          "type": "address"
        }
      ],
      "name": "getTransactionCount",
      "outputs": [
        {
          "internalType": "uint256",
          "name": "",
          "type": "uint256"
        }
      ],
      "stateMutability": "view",
      "type": "function"
    },
    {
      "inputs": [
        {
          "internalType": "address",
          "name": "spender",
          "type": "address"
        },
        {
          "internalType": "uint256",
          "name": "addedValue",
          "type": "uint256"
        }
      ],
      "name": "increaseAllowance",
      "outputs": [
        {
          "internalType": "bool",
          "name": "",
          "type": "bool"
        }
      ],
      "stateMutability": "nonpayable",
      "type": "function"
    },
    {
      "inputs": [
        {
          "internalType": "address",
          "name": "",
          "type": "address"
        }
      ],
      "name": "lastActiveTime",
      "outputs": [
        {
          "internalType": "uint256",
          "name": "",
          "type": "uint256"
        }
      ],
      "stateMutability": "view",
      "type": "function"
    },
    {
      "inputs": [],
      "name": "name",
      "outputs": [
        {
          "internalType": "string",
          "name": "",
          "type": "string"
        }
      ],
      "stateMutability": "view",
      "type": "function"
    },
    {
      "inputs": [],
      "name": "owner",
      "outputs": [
        {
          "internalType": "address",
          "name": "",
          "type": "address"
        }
      ],
      "stateMutability": "view",
      "type": "function"
    },
    {
      "inputs": [
        {
          "internalType": "address",
          "name": "",
          "type": "address"
        }
      ],
      "name": "sellers",
      "outputs": [
        {
          "internalType": "string",
          "name": "storeName",
          "type": "string"
        },
        {
          "internalType": "string",
          "name": "storeAddress",
          "type": "string"
        },
        {
          "internalType": "uint256",
          "name": "balance",
          "type": "uint256"
        }
      ],
      "stateMutability": "view",
      "type": "function"
    },
    {
      "inputs": [
        {
          "internalType": "string",
          "name": "_storeName",
          "type": "string"
        },
        {
          "internalType": "string",
          "name": "_storeAddress",
          "type": "string"
        }
      ],
      "name": "setSellerData",
      "outputs": [
        {
          "internalType": "address",
          "name": "",
          "type": "address"
        }
      ],
      "stateMutability": "nonpayable",
      "type": "function"
    },
    {
      "inputs": [
        {
          "internalType": "string",
          "name": "_name",
          "type": "string"
        },
        {
          "internalType": "string",
          "name": "_email",
          "type": "string"
        }
      ],
      "name": "setUserData",
      "outputs": [
        {
          "internalType": "address",
          "name": "",
          "type": "address"
        }
      ],
      "stateMutability": "nonpayable",
      "type": "function"
    },
    {
      "inputs": [],
      "name": "symbol",
      "outputs": [
        {
          "internalType": "string",
          "name": "",
          "type": "string"
        }
      ],
      "stateMutability": "view",
      "type": "function"
    },
    {
      "inputs": [
        {
          "internalType": "address",
          "name": "",
          "type": "address"
        }
      ],
      "name": "tokenHolderInfos",
      "outputs": [
        {
          "internalType": "uint256",
          "name": "_tokenId",
          "type": "uint256"
        },
        {
          "internalType": "address",
          "name": "_from",
          "type": "address"
        },
        {
          "internalType": "address",
          "name": "_to",
          "type": "address"
        },
        {
          "internalType": "uint256",
          "name": "_totalToken",
          "type": "uint256"
        },
        {
          "internalType": "bool",
          "name": "_tokenHolder",
          "type": "bool"
        }
      ],
      "stateMutability": "view",
      "type": "function"
    },
    {
      "inputs": [],
      "name": "totalSupply",
      "outputs": [
        {
          "internalType": "uint256",
          "name": "",
          "type": "uint256"
        }
      ],
      "stateMutability": "view",
      "type": "function"
    },
    {
      "inputs": [
        {
          "internalType": "address",
          "name": "to",
          "type": "address"
        },
        {
          "internalType": "uint256",
          "name": "amount",
          "type": "uint256"
        }
      ],
      "name": "transfer",
      "outputs": [
        {
          "internalType": "bool",
          "name": "",
          "type": "bool"
        }
      ],
      "stateMutability": "nonpayable",
      "type": "function"
    },
    {
      "inputs": [
        {
          "internalType": "address",
          "name": "from",
          "type": "address"
        },
        {
          "internalType": "address",
          "name": "to",
          "type": "address"
        },
        {
          "internalType": "uint256",
          "name": "amount",
          "type": "uint256"
        }
      ],
      "name": "transferFrom",
      "outputs": [
        {
          "internalType": "bool",
          "name": "",
          "type": "bool"
        }
      ],
      "stateMutability": "nonpayable",
      "type": "function"
    },
    {
      "inputs": [
        {
          "internalType": "address",
          "name": "seller",
          "type": "address"
        },
        {
          "internalType": "address",
          "name": "user",
          "type": "address"
        },
        {
          "internalType": "uint256",
          "name": "amount",
          "type": "uint256"
        }
      ],
      "name": "transferFromSellerToUser",
      "outputs": [],
      "stateMutability": "nonpayable",
      "type": "function"
    },
    {
      "inputs": [
        {
          "internalType": "address",
          "name": "",
          "type": "address"
        },
        {
          "internalType": "uint256",
          "name": "",
          "type": "uint256"
        }
      ],
      "name": "userTransactions",
      "outputs": [
        {
          "internalType": "string",
          "name": "transactionType",
          "type": "string"
        },
        {
          "internalType": "address",
          "name": "from",
          "type": "address"
        },
        {
          "internalType": "address",
          "name": "to",
          "type": "address"
        },
        {
          "internalType": "uint256",
          "name": "amount",
          "type": "uint256"
        },
        {
          "internalType": "uint256",
          "name": "timestamp",
          "type": "uint256"
        }
      ],
      "stateMutability": "view",
      "type": "function"
    },
    {
      "inputs": [
        {
          "internalType": "address",
          "name": "",
          "type": "address"
        }
      ],
      "name": "users",
      "outputs": [
        {
          "internalType": "string",
          "name": "name",
          "type": "string"
        },
        {
          "internalType": "string",
          "name": "email",
          "type": "string"
        },
        {
          "internalType": "uint256",
          "name": "balance",
          "type": "uint256"
        }
      ],
      "stateMutability": "view",
      "type": "function"
    }
  ],
  "bytecode": "0x60806040523480156200001157600080fd5b5060405162004e8938038062004e89833981810160405281019062000037919062000547565b6040518060400160405280600881526020017f466c6970436f696e0000000000000000000000000000000000000000000000008152506040518060400160405280600381526020017f464c4300000000000000000000000000000000000000000000000000000000008152508160039081620000b49190620007e9565b508060049081620000c69190620007e9565b50505033600560006101000a81548173ffffffffffffffffffffffffffffffffffffffff021916908373ffffffffffffffffffffffffffffffffffffffff16021790555080600c60003373ffffffffffffffffffffffffffffffffffffffff1673ffffffffffffffffffffffffffffffffffffffff1681526020019081526020016000208190555062000182600560009054906101000a900473ffffffffffffffffffffffffffffffffffffffff16826200033660201b60201c565b600a60003373ffffffffffffffffffffffffffffffffffffffff1673ffffffffffffffffffffffffffffffffffffffff1681526020019081526020016000206040518060a001604052806040518060400160405280600681526020017f63726564697400000000000000000000000000000000000000000000000000008152508152602001600073ffffffffffffffffffffffffffffffffffffffff1681526020013373ffffffffffffffffffffffffffffffffffffffff16815260200183815260200142815250908060018154018082558091505060019003906000526020600020906005020160009091909190915060008201518160000190816200028a9190620007e9565b5060208201518160010160006101000a81548173ffffffffffffffffffffffffffffffffffffffff021916908373ffffffffffffffffffffffffffffffffffffffff16021790555060408201518160020160006101000a81548173ffffffffffffffffffffffffffffffffffffffff021916908373ffffffffffffffffffffffffffffffffffffffff1602179055506060820151816003015560808201518160040155505050620009eb565b6200034882826200039060201b60201c565b42600960008473ffffffffffffffffffffffffffffffffffffffff1673ffffffffffffffffffffffffffffffffffffffff168152602001908152602001600020819055505050565b600073ffffffffffffffffffffffffffffffffffffffff168273ffffffffffffffffffffffffffffffffffffffff160362000402576040517f08c379a0000000000000000000000000000000000000000000000000000000008152600401620003f99062000931565b60405180910390fd5b6200041660008383620004fd60201b60201c565b80600260008282546200042a919062000982565b92505081905550806000808473ffffffffffffffffffffffffffffffffffffffff1673ffffffffffffffffffffffffffffffffffffffff168152602001908152602001600020600082825401925050819055508173ffffffffffffffffffffffffffffffffffffffff16600073ffffffffffffffffffffffffffffffffffffffff167fddf252ad1be2c89b69c2b068fc378daa952ba7f163c4a11628f55a4df523b3ef83604051620004dd9190620009ce565b60405180910390a3620004f9600083836200050260201b60201c565b5050565b505050565b505050565b600080fd5b6000819050919050565b62000521816200050c565b81146200052d57600080fd5b50565b600081519050620005418162000516565b92915050565b60006020828403121562000560576200055f62000507565b5b6000620005708482850162000530565b91505092915050565b600081519050919050565b7f4e487b7100000000000000000000000000000000000000000000000000000000600052604160045260246000fd5b7f4e487b7100000000000000000000000000000000000000000000000000000000600052602260045260246000fd5b60006002820490506001821680620005fb57607f821691505b602082108103620006115762000610620005b3565b5b50919050565b60008190508160005260206000209050919050565b60006020601f8301049050919050565b600082821b905092915050565b6000600883026200067b7fffffffffffffffffffffffffffffffffffffffffffffffffffffffffffffffff826200063c565b6200068786836200063c565b95508019841693508086168417925050509392505050565b6000819050919050565b6000620006ca620006c4620006be846200050c565b6200069f565b6200050c565b9050919050565b6000819050919050565b620006e683620006a9565b620006fe620006f582620006d1565b84845462000649565b825550505050565b600090565b6200071562000706565b62000722818484620006db565b505050565b5b818110156200074a576200073e6000826200070b565b60018101905062000728565b5050565b601f8211156200079957620007638162000617565b6200076e846200062c565b810160208510156200077e578190505b620007966200078d856200062c565b83018262000727565b50505b505050565b600082821c905092915050565b6000620007be600019846008026200079e565b1980831691505092915050565b6000620007d98383620007ab565b9150826002028217905092915050565b620007f48262000579565b67ffffffffffffffff81111562000810576200080f62000584565b5b6200081c8254620005e2565b620008298282856200074e565b600060209050601f8311600181146200086157600084156200084c578287015190505b620008588582620007cb565b865550620008c8565b601f198416620008718662000617565b60005b828110156200089b5784890151825560018201915060208501945060208101905062000874565b86831015620008bb5784890151620008b7601f891682620007ab565b8355505b6001600288020188555050505b505050505050565b600082825260208201905092915050565b7f45524332303a206d696e7420746f20746865207a65726f206164647265737300600082015250565b600062000919601f83620008d0565b91506200092682620008e1565b602082019050919050565b600060208201905081810360008301526200094c816200090a565b9050919050565b7f4e487b7100000000000000000000000000000000000000000000000000000000600052601160045260246000fd5b60006200098f826200050c565b91506200099c836200050c565b9250828201905080821115620009b757620009b662000953565b5b92915050565b620009c8816200050c565b82525050565b6000602082019050620009e56000830184620009bd565b92915050565b61448e80620009fb6000396000f3fe608060405234801561001057600080fd5b50600436106102275760003560e01c806379cc679011610130578063ca517a84116100b8578063dab3b7aa1161007c578063dab3b7aa146106f6578063dd62ed3e1461072a578063e3d670d71461075a578063e453d3041461078a578063ee21aa64146107ba57610227565b8063ca517a8414610656578063d0820d8714610672578063d56c351c1461068e578063d5f7b144146106be578063d988fee0146106da57610227565b8063a87430ba116100ff578063a87430ba14610572578063a9059cbb146105a4578063b842ec44146105d4578063bc4530e714610608578063c692c7ea1461062657610227565b806379cc6790146104ea5780638da5cb5b1461050657806395d89b4114610524578063a457c2d71461054257610227565b8063391d2c9c116101b35780634ddb4027116101825780634ddb40271461040a57806365aa84461461043a57806365b6e1fd146104585780636d47ab721461048857806370a08231146104ba57610227565b8063391d2c9c1461038457806339509351146103a05780633d3eeac9146103d057806342966c68146103ee57610227565b8063201a5bd6116101fa578063201a5bd6146102b457806323b872dd146102d257806323ca0cd21461030257806329cc66ed14610332578063313ce5671461036657610227565b806306fdde031461022c578063095ea7b31461024a5780631739de0c1461027a57806318160ddd14610296575b600080fd5b6102346107ea565b6040516102419190612c3f565b60405180910390f35b610264600480360381019061025f9190612d09565b61087c565b6040516102719190612d64565b60405180910390f35b610294600480360381019061028f9190612d7f565b61089f565b005b61029e610928565b6040516102ab9190612dce565b60405180910390f35b6102bc610932565b6040516102c99190612df8565b60405180910390f35b6102ec60048036038101906102e79190612e13565b61095c565b6040516102f99190612d64565b60405180910390f35b61031c60048036038101906103179190612e66565b61098b565b6040516103299190612dce565b60405180910390f35b61034c60048036038101906103479190612e66565b6109d7565b60405161035d959493929190612e93565b60405180910390f35b61036e610a5a565b60405161037b9190612f02565b60405180910390f35b61039e60048036038101906103999190612d7f565b610a63565b005b6103ba60048036038101906103b59190612d09565b610aec565b6040516103c79190612d64565b60405180910390f35b6103d8610b23565b6040516103e59190612dce565b60405180910390f35b61040860048036038101906104039190612f1d565b610b2a565b005b610424600480360381019061041f9190612e66565b610b3e565b6040516104319190612dce565b60405180910390f35b610442610b56565b60405161044f9190612dce565b60405180910390f35b610472600480360381019061046d9190612e66565b610b5b565b60405161047f9190612d64565b60405180910390f35b6104a2600480360381019061049d9190612e66565b610bb5565b6040516104b193929190612f4a565b60405180910390f35b6104d460048036038101906104cf9190612e66565b610cef565b6040516104e19190612dce565b60405180910390f35b61050460048036038101906104ff9190612d09565b610d37565b005b61050e610d57565b60405161051b9190612df8565b60405180910390f35b61052c610d7d565b6040516105399190612c3f565b60405180910390f35b61055c60048036038101906105579190612d09565b610e0f565b6040516105699190612d64565b60405180910390f35b61058c60048036038101906105879190612e66565b610e86565b60405161059b93929190612f4a565b60405180910390f35b6105be60048036038101906105b99190612d09565b610fc0565b6040516105cb9190612d64565b60405180910390f35b6105ee60048036038101906105e99190612d09565b610fe3565b6040516105ff959493929190612f8f565b60405180910390f35b6106106110fe565b60405161061d9190612dce565b60405180910390f35b610640600480360381019061063b9190612e66565b611104565b60405161064d9190612d64565b60405180910390f35b610670600480360381019061066b9190612e66565b61115e565b005b61068c60048036038101906106879190612d09565b61126a565b005b6106a860048036038101906106a3919061311e565b61149e565b6040516106b59190612df8565b60405180910390f35b6106d860048036038101906106d39190612d09565b61158c565b005b6106f460048036038101906106ef9190612e13565b611745565b005b610710600480360381019061070b9190612e66565b611cfa565b60405161072195949392919061341e565b60405180910390f35b610744600480360381019061073f9190613494565b6121be565b6040516107519190612dce565b60405180910390f35b610774600480360381019061076f9190612e66565b612245565b6040516107819190612dce565b60405180910390f35b6107a4600480360381019061079f919061311e565b61225d565b6040516107b19190612df8565b60405180910390f35b6107d460048036038101906107cf9190612e66565b61234b565b6040516107e19190612dce565b60405180910390f35b6060600380546107f990613503565b80601f016020809104026020016040519081016040528092919081815260200182805461082590613503565b80156108725780601f1061084757610100808354040283529160200191610872565b820191906000526020600020905b81548152906001019060200180831161085557829003601f168201915b5050505050905090565b60008061088761235d565b9050610894818585612365565b600191505092915050565b6108a9818361252e565b8073ffffffffffffffffffffffffffffffffffffffff163373ffffffffffffffffffffffffffffffffffffffff166040516108e39061358b565b60405180910390207f5a42621943d6ae29a5ade3695aa4d39fb91677136397b9814ca719bb91717edb854260405161091c9291906135a0565b60405180910390a45050565b6000600254905090565b6000600560009054906101000a900473ffffffffffffffffffffffffffffffffffffffff16905090565b60008061096761235d565b9050610974858285612580565b61097f85858561260c565b60019150509392505050565b6000600a60008373ffffffffffffffffffffffffffffffffffffffff1673ffffffffffffffffffffffffffffffffffffffff168152602001908152602001600020805490509050919050565b600b6020528060005260406000206000915090508060000154908060010160009054906101000a900473ffffffffffffffffffffffffffffffffffffffff16908060020160009054906101000a900473ffffffffffffffffffffffffffffffffffffffff16908060030154908060040160009054906101000a900460ff16905085565b60006012905090565b610a6d818361252e565b8073ffffffffffffffffffffffffffffffffffffffff163373ffffffffffffffffffffffffffffffffffffffff16604051610aa79061358b565b60405180910390207f5a42621943d6ae29a5ade3695aa4d39fb91677136397b9814ca719bb91717edb8542604051610ae09291906135a0565b60405180910390a45050565b600080610af761235d565b9050610b18818585610b0985896121be565b610b1391906135f8565b612365565b600191505092915050565b62ed4e0081565b610b3b610b3561235d565b82612882565b50565b60096020528060005260406000206000915090505481565b600a81565b600080600860008473ffffffffffffffffffffffffffffffffffffffff1673ffffffffffffffffffffffffffffffffffffffff1681526020019081526020016000206000018054610bab90613503565b9050119050919050565b6008602052806000526040600020600091509050806000018054610bd890613503565b80601f0160208091040260200160405190810160405280929190818152602001828054610c0490613503565b8015610c515780601f10610c2657610100808354040283529160200191610c51565b820191906000526020600020905b815481529060010190602001808311610c3457829003601f168201915b505050505090806001018054610c6690613503565b80601f0160208091040260200160405190810160405280929190818152602001828054610c9290613503565b8015610cdf5780601f10610cb457610100808354040283529160200191610cdf565b820191906000526020600020905b815481529060010190602001808311610cc257829003601f168201915b5050505050908060020154905083565b60008060008373ffffffffffffffffffffffffffffffffffffffff1673ffffffffffffffffffffffffffffffffffffffff168152602001908152602001600020549050919050565b610d4982610d4361235d565b83612580565b610d538282612882565b5050565b600560009054906101000a900473ffffffffffffffffffffffffffffffffffffffff1681565b606060048054610d8c90613503565b80601f0160208091040260200160405190810160405280929190818152602001828054610db890613503565b8015610e055780601f10610dda57610100808354040283529160200191610e05565b820191906000526020600020905b815481529060010190602001808311610de857829003601f168201915b5050505050905090565b600080610e1a61235d565b90506000610e2882866121be565b905083811015610e6d576040517f08c379a0000000000000000000000000000000000000000000000000000000008152600401610e649061369e565b60405180910390fd5b610e7a8286868403612365565b60019250505092915050565b6007602052806000526040600020600091509050806000018054610ea990613503565b80601f0160208091040260200160405190810160405280929190818152602001828054610ed590613503565b8015610f225780601f10610ef757610100808354040283529160200191610f22565b820191906000526020600020905b815481529060010190602001808311610f0557829003601f168201915b505050505090806001018054610f3790613503565b80601f0160208091040260200160405190810160405280929190818152602001828054610f6390613503565b8015610fb05780601f10610f8557610100808354040283529160200191610fb0565b820191906000526020600020905b815481529060010190602001808311610f9357829003601f168201915b5050505050908060020154905083565b600080610fcb61235d565b9050610fd881858561260c565b600191505092915050565b600a6020528160005260406000208181548110610fff57600080fd5b90600052602060002090600502016000915091505080600001805461102390613503565b80601f016020809104026020016040519081016040528092919081815260200182805461104f90613503565b801561109c5780601f106110715761010080835404028352916020019161109c565b820191906000526020600020905b81548152906001019060200180831161107f57829003601f168201915b5050505050908060010160009054906101000a900473ffffffffffffffffffffffffffffffffffffffff16908060020160009054906101000a900473ffffffffffffffffffffffffffffffffffffffff16908060030154908060040154905085565b60065481565b600080600760008473ffffffffffffffffffffffffffffffffffffffff1673ffffffffffffffffffffffffffffffffffffffff168152602001908152602001600020600001805461115490613503565b9050119050919050565b6000600960008373ffffffffffffffffffffffffffffffffffffffff1673ffffffffffffffffffffffffffffffffffffffff16815260200190815260200160002054426111ab91906136be565b905062ed4e0081116111f2576040517f08c379a00000000000000000000000000000000000000000000000000000000081526004016111e99061373e565b60405180910390fd5b60006064600a61120185610cef565b61120b919061375e565b61121591906137cf565b90506112218382612882565b42600960008573ffffffffffffffffffffffffffffffffffffffff1673ffffffffffffffffffffffffffffffffffffffff16815260200190815260200160002081905550505050565b611274828261252e565b8173ffffffffffffffffffffffffffffffffffffffff163373ffffffffffffffffffffffffffffffffffffffff166040516112ae9061358b565b60405180910390207f5a42621943d6ae29a5ade3695aa4d39fb91677136397b9814ca719bb91717edb84426040516112e79291906135a0565b60405180910390a4600a60008373ffffffffffffffffffffffffffffffffffffffff1673ffffffffffffffffffffffffffffffffffffffff1681526020019081526020016000206040518060a001604052806040518060400160405280600681526020017f63726564697400000000000000000000000000000000000000000000000000008152508152602001600073ffffffffffffffffffffffffffffffffffffffff1681526020018473ffffffffffffffffffffffffffffffffffffffff16815260200183815260200142815250908060018154018082558091505060019003906000526020600020906005020160009091909190915060008201518160000190816113f591906139ac565b5060208201518160010160006101000a81548173ffffffffffffffffffffffffffffffffffffffff021916908373ffffffffffffffffffffffffffffffffffffffff16021790555060408201518160020160006101000a81548173ffffffffffffffffffffffffffffffffffffffff021916908373ffffffffffffffffffffffffffffffffffffffff160217905550606082015181600301556080820151816004015550505050565b60006114a933611104565b156114e9576040517f08c379a00000000000000000000000000000000000000000000000000000000081526004016114e090613aca565b60405180910390fd5b600060405180606001604052808581526020018481526020016000815250905080600760003373ffffffffffffffffffffffffffffffffffffffff1673ffffffffffffffffffffffffffffffffffffffff168152602001908152602001600020600082015181600001908161155e91906139ac565b50602082015181600101908161157491906139ac565b50604082015181600201559050503391505092915050565b6115968282612882565b600a60008373ffffffffffffffffffffffffffffffffffffffff1673ffffffffffffffffffffffffffffffffffffffff1681526020019081526020016000206040518060a001604052806040518060400160405280600581526020017f646562697400000000000000000000000000000000000000000000000000000081525081526020018473ffffffffffffffffffffffffffffffffffffffff168152602001600073ffffffffffffffffffffffffffffffffffffffff168152602001838152602001428152509080600181540180825580915050600190039060005260206000209060050201600090919091909150600082015181600001908161169c91906139ac565b5060208201518160010160006101000a81548173ffffffffffffffffffffffffffffffffffffffff021916908373ffffffffffffffffffffffffffffffffffffffff16021790555060408201518160020160006101000a81548173ffffffffffffffffffffffffffffffffffffffff021916908373ffffffffffffffffffffffffffffffffffffffff160217905550606082015181600301556080820151816004015550505050565b8273ffffffffffffffffffffffffffffffffffffffff163373ffffffffffffffffffffffffffffffffffffffff16146117b3576040517f08c379a00000000000000000000000000000000000000000000000000000000081526004016117aa90613b5c565b60405180910390fd5b6117bc83610b5b565b6117fb576040517f08c379a00000000000000000000000000000000000000000000000000000000081526004016117f290613bc8565b60405180910390fd5b61180482611104565b611843576040517f08c379a000000000000000000000000000000000000000000000000000000000815260040161183a90613c34565b60405180910390fd5b61186c8383611850610a5a565b600a61185c9190613d87565b84611867919061375e565b61095c565b6118ab576040517f08c379a00000000000000000000000000000000000000000000000000000000081526004016118a290613e1e565b60405180910390fd5b600a60008473ffffffffffffffffffffffffffffffffffffffff1673ffffffffffffffffffffffffffffffffffffffff1681526020019081526020016000206040518060a001604052806040518060400160405280600581526020017f646562697400000000000000000000000000000000000000000000000000000081525081526020018573ffffffffffffffffffffffffffffffffffffffff1681526020018473ffffffffffffffffffffffffffffffffffffffff16815260200183815260200142815250908060018154018082558091505060019003906000526020600020906005020160009091909190915060008201518160000190816119b091906139ac565b5060208201518160010160006101000a81548173ffffffffffffffffffffffffffffffffffffffff021916908373ffffffffffffffffffffffffffffffffffffffff16021790555060408201518160020160006101000a81548173ffffffffffffffffffffffffffffffffffffffff021916908373ffffffffffffffffffffffffffffffffffffffff16021790555060608201518160030155608082015181600401555050600a60008373ffffffffffffffffffffffffffffffffffffffff1673ffffffffffffffffffffffffffffffffffffffff1681526020019081526020016000206040518060a001604052806040518060400160405280600681526020017f637265646974000000000000000000000000000000000000000000000000000081525081526020018573ffffffffffffffffffffffffffffffffffffffff1681526020018473ffffffffffffffffffffffffffffffffffffffff1681526020018381526020014281525090806001815401808255809150506001900390600052602060002090600502016000909190919091506000820151816000019081611b5a91906139ac565b5060208201518160010160006101000a81548173ffffffffffffffffffffffffffffffffffffffff021916908373ffffffffffffffffffffffffffffffffffffffff16021790555060408201518160020160006101000a81548173ffffffffffffffffffffffffffffffffffffffff021916908373ffffffffffffffffffffffffffffffffffffffff160217905550606082015181600301556080820151816004015550508173ffffffffffffffffffffffffffffffffffffffff168373ffffffffffffffffffffffffffffffffffffffff16604051611c3990613e8a565b60405180910390207f5a42621943d6ae29a5ade3695aa4d39fb91677136397b9814ca719bb91717edb8442604051611c729291906135a0565b60405180910390a48273ffffffffffffffffffffffffffffffffffffffff168273ffffffffffffffffffffffffffffffffffffffff16604051611cb49061358b565b60405180910390207f5a42621943d6ae29a5ade3695aa4d39fb91677136397b9814ca719bb91717edb8442604051611ced9291906135a0565b60405180910390a4505050565b60608060608060606000600a60008873ffffffffffffffffffffffffffffffffffffffff1673ffffffffffffffffffffffffffffffffffffffff1681526020019081526020016000208054905090508067ffffffffffffffff811115611d6357611d62612ff3565b5b604051908082528060200260200182016040528015611d9657816020015b6060815260200190600190039081611d815790505b5095508067ffffffffffffffff811115611db357611db2612ff3565b5b604051908082528060200260200182016040528015611de15781602001602082028036833780820191505090505b5094508067ffffffffffffffff811115611dfe57611dfd612ff3565b5b604051908082528060200260200182016040528015611e2c5781602001602082028036833780820191505090505b5093508067ffffffffffffffff811115611e4957611e48612ff3565b5b604051908082528060200260200182016040528015611e775781602001602082028036833780820191505090505b5092508067ffffffffffffffff811115611e9457611e93612ff3565b5b604051908082528060200260200182016040528015611ec25781602001602082028036833780820191505090505b50915060005b818110156121b3576000600a60008a73ffffffffffffffffffffffffffffffffffffffff1673ffffffffffffffffffffffffffffffffffffffff1681526020019081526020016000208281548110611f2357611f22613e9f565b5b90600052602060002090600502016040518060a0016040529081600082018054611f4c90613503565b80601f0160208091040260200160405190810160405280929190818152602001828054611f7890613503565b8015611fc55780601f10611f9a57610100808354040283529160200191611fc5565b820191906000526020600020905b815481529060010190602001808311611fa857829003601f168201915b505050505081526020016001820160009054906101000a900473ffffffffffffffffffffffffffffffffffffffff1673ffffffffffffffffffffffffffffffffffffffff1673ffffffffffffffffffffffffffffffffffffffff1681526020016002820160009054906101000a900473ffffffffffffffffffffffffffffffffffffffff1673ffffffffffffffffffffffffffffffffffffffff1673ffffffffffffffffffffffffffffffffffffffff16815260200160038201548152602001600482015481525050905080600001518883815181106120a8576120a7613e9f565b5b602002602001018190525080602001518783815181106120cb576120ca613e9f565b5b602002602001019073ffffffffffffffffffffffffffffffffffffffff16908173ffffffffffffffffffffffffffffffffffffffff1681525050806040015186838151811061211d5761211c613e9f565b5b602002602001019073ffffffffffffffffffffffffffffffffffffffff16908173ffffffffffffffffffffffffffffffffffffffff1681525050806060015185838151811061216f5761216e613e9f565b5b602002602001018181525050806080015184838151811061219357612192613e9f565b5b6020026020010181815250505080806121ab90613ece565b915050611ec8565b505091939590929450565b6000600160008473ffffffffffffffffffffffffffffffffffffffff1673ffffffffffffffffffffffffffffffffffffffff16815260200190815260200160002060008373ffffffffffffffffffffffffffffffffffffffff1673ffffffffffffffffffffffffffffffffffffffff16815260200190815260200160002054905092915050565b600c6020528060005260406000206000915090505481565b600061226833610b5b565b156122a8576040517f08c379a000000000000000000000000000000000000000000000000000000000815260040161229f90613f62565b60405180910390fd5b600060405180606001604052808581526020018481526020016000815250905080600860003373ffffffffffffffffffffffffffffffffffffffff1673ffffffffffffffffffffffffffffffffffffffff168152602001908152602001600020600082015181600001908161231d91906139ac565b50602082015181600101908161233391906139ac565b50604082015181600201559050503391505092915050565b600061235682610cef565b9050919050565b600033905090565b600073ffffffffffffffffffffffffffffffffffffffff168373ffffffffffffffffffffffffffffffffffffffff16036123d4576040517f08c379a00000000000000000000000000000000000000000000000000000000081526004016123cb90613ff4565b60405180910390fd5b600073ffffffffffffffffffffffffffffffffffffffff168273ffffffffffffffffffffffffffffffffffffffff1603612443576040517f08c379a000000000000000000000000000000000000000000000000000000000815260040161243a90614086565b60405180910390fd5b80600160008573ffffffffffffffffffffffffffffffffffffffff1673ffffffffffffffffffffffffffffffffffffffff16815260200190815260200160002060008473ffffffffffffffffffffffffffffffffffffffff1673ffffffffffffffffffffffffffffffffffffffff168152602001908152602001600020819055508173ffffffffffffffffffffffffffffffffffffffff168373ffffffffffffffffffffffffffffffffffffffff167f8c5be1e5ebec7d5bd14f71427d1e84f3dd0314c0f7b2291e5b200ac8c7c3b925836040516125219190612dce565b60405180910390a3505050565b6125388282612a4f565b42600960008473ffffffffffffffffffffffffffffffffffffffff1673ffffffffffffffffffffffffffffffffffffffff168152602001908152602001600020819055505050565b600061258c84846121be565b90507fffffffffffffffffffffffffffffffffffffffffffffffffffffffffffffffff811461260657818110156125f8576040517f08c379a00000000000000000000000000000000000000000000000000000000081526004016125ef906140f2565b60405180910390fd5b6126058484848403612365565b5b50505050565b600073ffffffffffffffffffffffffffffffffffffffff168373ffffffffffffffffffffffffffffffffffffffff160361267b576040517f08c379a000000000000000000000000000000000000000000000000000000000815260040161267290614184565b60405180910390fd5b600073ffffffffffffffffffffffffffffffffffffffff168273ffffffffffffffffffffffffffffffffffffffff16036126ea576040517f08c379a00000000000000000000000000000000000000000000000000000000081526004016126e190614216565b60405180910390fd5b6126f5838383612ba5565b60008060008573ffffffffffffffffffffffffffffffffffffffff1673ffffffffffffffffffffffffffffffffffffffff1681526020019081526020016000205490508181101561277b576040517f08c379a0000000000000000000000000000000000000000000000000000000008152600401612772906142a8565b60405180910390fd5b8181036000808673ffffffffffffffffffffffffffffffffffffffff1673ffffffffffffffffffffffffffffffffffffffff16815260200190815260200160002081905550816000808573ffffffffffffffffffffffffffffffffffffffff1673ffffffffffffffffffffffffffffffffffffffff168152602001908152602001600020600082825401925050819055508273ffffffffffffffffffffffffffffffffffffffff168473ffffffffffffffffffffffffffffffffffffffff167fddf252ad1be2c89b69c2b068fc378daa952ba7f163c4a11628f55a4df523b3ef846040516128699190612dce565b60405180910390a361287c848484612baa565b50505050565b600073ffffffffffffffffffffffffffffffffffffffff168273ffffffffffffffffffffffffffffffffffffffff16036128f1576040517f08c379a00000000000000000000000000000000000000000000000000000000081526004016128e89061433a565b60405180910390fd5b6128fd82600083612ba5565b60008060008473ffffffffffffffffffffffffffffffffffffffff1673ffffffffffffffffffffffffffffffffffffffff16815260200190815260200160002054905081811015612983576040517f08c379a000000000000000000000000000000000000000000000000000000000815260040161297a906143cc565b60405180910390fd5b8181036000808573ffffffffffffffffffffffffffffffffffffffff1673ffffffffffffffffffffffffffffffffffffffff1681526020019081526020016000208190555081600260008282540392505081905550600073ffffffffffffffffffffffffffffffffffffffff168373ffffffffffffffffffffffffffffffffffffffff167fddf252ad1be2c89b69c2b068fc378daa952ba7f163c4a11628f55a4df523b3ef84604051612a369190612dce565b60405180910390a3612a4a83600084612baa565b505050565b600073ffffffffffffffffffffffffffffffffffffffff168273ffffffffffffffffffffffffffffffffffffffff1603612abe576040517f08c379a0000000000000000000000000000000000000000000000000000000008152600401612ab590614438565b60405180910390fd5b612aca60008383612ba5565b8060026000828254612adc91906135f8565b92505081905550806000808473ffffffffffffffffffffffffffffffffffffffff1673ffffffffffffffffffffffffffffffffffffffff168152602001908152602001600020600082825401925050819055508173ffffffffffffffffffffffffffffffffffffffff16600073ffffffffffffffffffffffffffffffffffffffff167fddf252ad1be2c89b69c2b068fc378daa952ba7f163c4a11628f55a4df523b3ef83604051612b8d9190612dce565b60405180910390a3612ba160008383612baa565b5050565b505050565b505050565b600081519050919050565b600082825260208201905092915050565b60005b83811015612be9578082015181840152602081019050612bce565b60008484015250505050565b6000601f19601f8301169050919050565b6000612c1182612baf565b612c1b8185612bba565b9350612c2b818560208601612bcb565b612c3481612bf5565b840191505092915050565b60006020820190508181036000830152612c598184612c06565b905092915050565b6000604051905090565b600080fd5b600080fd5b600073ffffffffffffffffffffffffffffffffffffffff82169050919050565b6000612ca082612c75565b9050919050565b612cb081612c95565b8114612cbb57600080fd5b50565b600081359050612ccd81612ca7565b92915050565b6000819050919050565b612ce681612cd3565b8114612cf157600080fd5b50565b600081359050612d0381612cdd565b92915050565b60008060408385031215612d2057612d1f612c6b565b5b6000612d2e85828601612cbe565b9250506020612d3f85828601612cf4565b9150509250929050565b60008115159050919050565b612d5e81612d49565b82525050565b6000602082019050612d796000830184612d55565b92915050565b60008060408385031215612d9657612d95612c6b565b5b6000612da485828601612cf4565b9250506020612db585828601612cbe565b9150509250929050565b612dc881612cd3565b82525050565b6000602082019050612de36000830184612dbf565b92915050565b612df281612c95565b82525050565b6000602082019050612e0d6000830184612de9565b92915050565b600080600060608486031215612e2c57612e2b612c6b565b5b6000612e3a86828701612cbe565b9350506020612e4b86828701612cbe565b9250506040612e5c86828701612cf4565b9150509250925092565b600060208284031215612e7c57612e7b612c6b565b5b6000612e8a84828501612cbe565b91505092915050565b600060a082019050612ea86000830188612dbf565b612eb56020830187612de9565b612ec26040830186612de9565b612ecf6060830185612dbf565b612edc6080830184612d55565b9695505050505050565b600060ff82169050919050565b612efc81612ee6565b82525050565b6000602082019050612f176000830184612ef3565b92915050565b600060208284031215612f3357612f32612c6b565b5b6000612f4184828501612cf4565b91505092915050565b60006060820190508181036000830152612f648186612c06565b90508181036020830152612f788185612c06565b9050612f876040830184612dbf565b949350505050565b600060a0820190508181036000830152612fa98188612c06565b9050612fb86020830187612de9565b612fc56040830186612de9565b612fd26060830185612dbf565b612fdf6080830184612dbf565b9695505050505050565b600080fd5b600080fd5b7f4e487b7100000000000000000000000000000000000000000000000000000000600052604160045260246000fd5b61302b82612bf5565b810181811067ffffffffffffffff8211171561304a57613049612ff3565b5b80604052505050565b600061305d612c61565b90506130698282613022565b919050565b600067ffffffffffffffff82111561308957613088612ff3565b5b61309282612bf5565b9050602081019050919050565b82818337600083830152505050565b60006130c16130bc8461306e565b613053565b9050828152602081018484840111156130dd576130dc612fee565b5b6130e884828561309f565b509392505050565b600082601f83011261310557613104612fe9565b5b81356131158482602086016130ae565b91505092915050565b6000806040838503121561313557613134612c6b565b5b600083013567ffffffffffffffff81111561315357613152612c70565b5b61315f858286016130f0565b925050602083013567ffffffffffffffff8111156131805761317f612c70565b5b61318c858286016130f0565b9150509250929050565b600081519050919050565b600082825260208201905092915050565b6000819050602082019050919050565b600082825260208201905092915050565b60006131de82612baf565b6131e881856131c2565b93506131f8818560208601612bcb565b61320181612bf5565b840191505092915050565b600061321883836131d3565b905092915050565b6000602082019050919050565b600061323882613196565b61324281856131a1565b935083602082028501613254856131b2565b8060005b858110156132905784840389528151613271858261320c565b945061327c83613220565b925060208a01995050600181019050613258565b50829750879550505050505092915050565b600081519050919050565b600082825260208201905092915050565b6000819050602082019050919050565b6132d781612c95565b82525050565b60006132e983836132ce565b60208301905092915050565b6000602082019050919050565b600061330d826132a2565b61331781856132ad565b9350613322836132be565b8060005b8381101561335357815161333a88826132dd565b9750613345836132f5565b925050600181019050613326565b5085935050505092915050565b600081519050919050565b600082825260208201905092915050565b6000819050602082019050919050565b61339581612cd3565b82525050565b60006133a7838361338c565b60208301905092915050565b6000602082019050919050565b60006133cb82613360565b6133d5818561336b565b93506133e08361337c565b8060005b838110156134115781516133f8888261339b565b9750613403836133b3565b9250506001810190506133e4565b5085935050505092915050565b600060a0820190508181036000830152613438818861322d565b9050818103602083015261344c8187613302565b905081810360408301526134608186613302565b9050818103606083015261347481856133c0565b9050818103608083015261348881846133c0565b90509695505050505050565b600080604083850312156134ab576134aa612c6b565b5b60006134b985828601612cbe565b92505060206134ca85828601612cbe565b9150509250929050565b7f4e487b7100000000000000000000000000000000000000000000000000000000600052602260045260246000fd5b6000600282049050600182168061351b57607f821691505b60208210810361352e5761352d6134d4565b5b50919050565b600081905092915050565b7f6372656469740000000000000000000000000000000000000000000000000000600082015250565b6000613575600683613534565b91506135808261353f565b600682019050919050565b600061359682613568565b9150819050919050565b60006040820190506135b56000830185612dbf565b6135c26020830184612dbf565b9392505050565b7f4e487b7100000000000000000000000000000000000000000000000000000000600052601160045260246000fd5b600061360382612cd3565b915061360e83612cd3565b9250828201905080821115613626576136256135c9565b5b92915050565b7f45524332303a2064656372656173656420616c6c6f77616e63652062656c6f7760008201527f207a65726f000000000000000000000000000000000000000000000000000000602082015250565b6000613688602583612bba565b91506136938261362c565b604082019050919050565b600060208201905081810360008301526136b78161367b565b9050919050565b60006136c982612cd3565b91506136d483612cd3565b92508282039050818111156136ec576136eb6135c9565b5b92915050565b7f436f696e732068617665206e6f74207965742065787069726564000000000000600082015250565b6000613728601a83612bba565b9150613733826136f2565b602082019050919050565b600060208201905081810360008301526137578161371b565b9050919050565b600061376982612cd3565b915061377483612cd3565b925082820261378281612cd3565b91508282048414831517613799576137986135c9565b5b5092915050565b7f4e487b7100000000000000000000000000000000000000000000000000000000600052601260045260246000fd5b60006137da82612cd3565b91506137e583612cd3565b9250826137f5576137f46137a0565b5b828204905092915050565b60008190508160005260206000209050919050565b60006020601f8301049050919050565b600082821b905092915050565b6000600883026138627fffffffffffffffffffffffffffffffffffffffffffffffffffffffffffffffff82613825565b61386c8683613825565b95508019841693508086168417925050509392505050565b6000819050919050565b60006138a96138a461389f84612cd3565b613884565b612cd3565b9050919050565b6000819050919050565b6138c38361388e565b6138d76138cf826138b0565b848454613832565b825550505050565b600090565b6138ec6138df565b6138f78184846138ba565b505050565b5b8181101561391b576139106000826138e4565b6001810190506138fd565b5050565b601f8211156139605761393181613800565b61393a84613815565b81016020851015613949578190505b61395d61395585613815565b8301826138fc565b50505b505050565b600082821c905092915050565b600061398360001984600802613965565b1980831691505092915050565b600061399c8383613972565b9150826002028217905092915050565b6139b582612baf565b67ffffffffffffffff8111156139ce576139cd612ff3565b5b6139d88254613503565b6139e382828561391f565b600060209050601f831160018114613a165760008415613a04578287015190505b613a0e8582613990565b865550613a76565b601f198416613a2486613800565b60005b82811015613a4c57848901518255600182019150602085019450602081019050613a27565b86831015613a695784890151613a65601f891682613972565b8355505b6001600288020188555050505b505050505050565b7f5573657220616c72656164792065786973747321000000000000000000000000600082015250565b6000613ab4601483612bba565b9150613abf82613a7e565b602082019050919050565b60006020820190508181036000830152613ae381613aa7565b9050919050565b7f4f6e6c79207468652073656c6c65722063616e20696e6974696174652074686560008201527f207472616e736665720000000000000000000000000000000000000000000000602082015250565b6000613b46602983612bba565b9150613b5182613aea565b604082019050919050565b60006020820190508181036000830152613b7581613b39565b9050919050565b7f53656c6c657220646f6573206e6f742065786973740000000000000000000000600082015250565b6000613bb2601583612bba565b9150613bbd82613b7c565b602082019050919050565b60006020820190508181036000830152613be181613ba5565b9050919050565b7f5573657220646f6573206e6f7420657869737400000000000000000000000000600082015250565b6000613c1e601383612bba565b9150613c2982613be8565b602082019050919050565b60006020820190508181036000830152613c4d81613c11565b9050919050565b60008160011c9050919050565b6000808291508390505b6001851115613cab57808604811115613c8757613c866135c9565b5b6001851615613c965780820291505b8081029050613ca485613c54565b9450613c6b565b94509492505050565b600082613cc45760019050613d80565b81613cd25760009050613d80565b8160018114613ce85760028114613cf257613d21565b6001915050613d80565b60ff841115613d0457613d036135c9565b5b8360020a915084821115613d1b57613d1a6135c9565b5b50613d80565b5060208310610133831016604e8410600b8410161715613d565782820a905083811115613d5157613d506135c9565b5b613d80565b613d638484846001613c61565b92509050818404811115613d7a57613d796135c9565b5b81810290505b9392505050565b6000613d9282612cd3565b9150613d9d83612ee6565b9250613dca7fffffffffffffffffffffffffffffffffffffffffffffffffffffffffffffffff8484613cb4565b905092915050565b7f5472616e73666572206661696c65640000000000000000000000000000000000600082015250565b6000613e08600f83612bba565b9150613e1382613dd2565b602082019050919050565b60006020820190508181036000830152613e3781613dfb565b9050919050565b7f6465626974000000000000000000000000000000000000000000000000000000600082015250565b6000613e74600583613534565b9150613e7f82613e3e565b600582019050919050565b6000613e9582613e67565b9150819050919050565b7f4e487b7100000000000000000000000000000000000000000000000000000000600052603260045260246000fd5b6000613ed982612cd3565b91507fffffffffffffffffffffffffffffffffffffffffffffffffffffffffffffffff8203613f0b57613f0a6135c9565b5b600182019050919050565b7f53656c6c657220616c7265616479206578697374732100000000000000000000600082015250565b6000613f4c601683612bba565b9150613f5782613f16565b602082019050919050565b60006020820190508181036000830152613f7b81613f3f565b9050919050565b7f45524332303a20617070726f76652066726f6d20746865207a65726f2061646460008201527f7265737300000000000000000000000000000000000000000000000000000000602082015250565b6000613fde602483612bba565b9150613fe982613f82565b604082019050919050565b6000602082019050818103600083015261400d81613fd1565b9050919050565b7f45524332303a20617070726f766520746f20746865207a65726f20616464726560008201527f7373000000000000000000000000000000000000000000000000000000000000602082015250565b6000614070602283612bba565b915061407b82614014565b604082019050919050565b6000602082019050818103600083015261409f81614063565b9050919050565b7f45524332303a20696e73756666696369656e7420616c6c6f77616e6365000000600082015250565b60006140dc601d83612bba565b91506140e7826140a6565b602082019050919050565b6000602082019050818103600083015261410b816140cf565b9050919050565b7f45524332303a207472616e736665722066726f6d20746865207a65726f20616460008201527f6472657373000000000000000000000000000000000000000000000000000000602082015250565b600061416e602583612bba565b915061417982614112565b604082019050919050565b6000602082019050818103600083015261419d81614161565b9050919050565b7f45524332303a207472616e7366657220746f20746865207a65726f206164647260008201527f6573730000000000000000000000000000000000000000000000000000000000602082015250565b6000614200602383612bba565b915061420b826141a4565b604082019050919050565b6000602082019050818103600083015261422f816141f3565b9050919050565b7f45524332303a207472616e7366657220616d6f756e742065786365656473206260008201527f616c616e63650000000000000000000000000000000000000000000000000000602082015250565b6000614292602683612bba565b915061429d82614236565b604082019050919050565b600060208201905081810360008301526142c181614285565b9050919050565b7f45524332303a206275726e2066726f6d20746865207a65726f2061646472657360008201527f7300000000000000000000000000000000000000000000000000000000000000602082015250565b6000614324602183612bba565b915061432f826142c8565b604082019050919050565b6000602082019050818103600083015261435381614317565b9050919050565b7f45524332303a206275726e20616d6f756e7420657863656564732062616c616e60008201527f6365000000000000000000000000000000000000000000000000000000000000602082015250565b60006143b6602283612bba565b91506143c18261435a565b604082019050919050565b600060208201905081810360008301526143e5816143a9565b9050919050565b7f45524332303a206d696e7420746f20746865207a65726f206164647265737300600082015250565b6000614422601f83612bba565b915061442d826143ec565b602082019050919050565b6000602082019050818103600083015261445181614415565b905091905056fea26469706673582212205c74a96fe390c79bc8f610a39df6f63653f7e33db95168c33262677ae327966f64736f6c63430008130033",
  "linkReferences": {},
  "deployedLinkReferences": {}
}